:04000000004093BB6E
:20880000761BFFF0E20000BDE63006002942561676256F00761BFFF0E20000BDE630060001
:208810002942561676256F00761BFFF0E20000BDE63006002942561676256F00761BFFF0CB
:20882000E20000BDE63006002942561676256F00761BFFF0E20000BDE6300600294256168A
:2088300076256F00761BFFF0E20000BDE63006002942561676256F00761BFFF0E20000BDE3
:20884000E63006002942561676256F00761BFFF0E20000BDE63006002942561676256F00FF
:20885000761BFFF0E20000BDE63006002942561676256F00761BFFF0E20000BDE6300600B1
:208860002942561676256F00761BFFF0E20000BDE63006002942561676256F00761BFFF07B
:20887000E20000BDE63006002942561676256F00761BFFF0E20000BDE6300600294256163A
:2088800076256F00761BFFF0E20000BDE63006002942561676256F00761BFFF0E20000BD93
:20889000E63006002942561676256F00761BFFF0E20000BDE63006002942561676256F00AF
:2088A000761BFFF0E20000BDE63006002942561676256F00761BFFF0E20000BDE630060061
:2088B0002942561676256F00761BFFF0E20000BDE63006002942561676256F00761BFFF02B
:2088C000E20000BDE63006002942561676256F00761BFFF0E20000BDE630060029425616EA
:2088D00076256F00761BFFF0E20000BDE63006002942561676256F00761BFFF0E20000BD43
:2088E000E63006002942561676256F00761BFFF0E20000BDE63006002942561676256F005F
:2088F000761BFFF0E20000BDE63006002942561676256F00761BFFF0E20000BDE630060011
:208900002942561676256F00761BFFF0E20000BDE63006002942561676256F00761BFFF0DA
:20891000E20000BDE63006002942561676256F00761BFFF0E20000BDE63006002942561699
:2089200076256F00761BFFF0E20000BDE63006002942561676256F00761BFFF0E20000BDF2
:20893000E63006002942561676256F00761BFFF0E20000BDE63006002942561676256F000E
:20894000761BFFF0E20000BDE63006002942561676256F00761BFFF0E20000BDE6300600C0
:208950002942561676256F00761BFFF0E20000BDE63006002942561676256F00761BFFF08A
:20896000E20000BDE63006002942561676256F00761BFFF0E20000BDE63006002942561649
:2089700076256F00761BFFF0E20000BDE63006002942561676256F00761BFFF0E20000BDA2
:20898000E63006002942561676256F00761BFFF0E20000BDE63006002942561676256F00BE
:20899000761BFFF0E20000BDE63006002942561676256F00761BFFF0E20000BDE630060070
:2089A0002942561676256F00761BFFF0E20000BDE63006002942561676256F00761BFFF03A
:2089B000E20000BDE63006002942561676256F00761BFFF0E20000BDE630060029425616F9
:2089C00076256F00761BFFF0E20000BDE63006002942561676256F00761BFFF0E20000BD52
:2089D000E63006002942561676256F00761BFFF0E20000BDE63006002942561676256F006E
:2089E000761BFFF0E20000BDE63006002942561676256F00761BFFF0E20000BDE630060020
:2089F0002942561676256F00761BFFF0E20000BDE63006002942561676256F00761BFFF0EA
:208A0000E20000BDE63006002942561676256F00761BFFF0E20000BDE630060029425616A8
:208A100076256F00761BFFF0E20000BDE63006002942561676256F00761BFFF0E20000BD01
:208A2000E63006002942561676256F00761BFFF0E20000BDE63006002942561676256F001D
:208A3000761BFFF0E20000BDE63006002942561676256F00761BFFF0E20000BDE6300600CF
:208A40002942561676256F00761BFFF0E20000BDE63006002942561676256F00761BFFF099
:208A5000E20000BDE63006002942561676256F00761BFFF0E20000BDE63006002942561658
:208A600076256F00761BFFF0E20000BDE63006002942561676256F00761BFFF0E20000BDB1
:208A7000E63006002942561676256F00761BFFF0E20000BDE63006002942561676256F00CD
:208A8000761BFFF0E20000BDE63006002942561676256F00761BFFF0E20000BDE63006007F
:208A90002942561676256F00761BFFF0E20000BDE63006002942561676256F00761BFFF049
:208AA000E20000BDE63006002942561676256F00761BFFF0E20000BDE63006002942561608
:208AB00076256F00761BFFF0E20000BDE63006002942561676256F00761BFFF0E20000BD61
:208AC000E63006002942561676256F00761BFFF0E20000BDE63006002942561676256F007D
:208AD000761BFFF0E20000BDE63006002942561676256F00761BFFF0E20000BDE63006002F
:208AE0002942561676256F00761BFFF0E20000BDE63006002942561676256F00761BFFF0F9
:208AF000E20000BDE63006002942561676256F00761BFFF0E20000BDE630060029425616B8
:208B000076256F00761BFFF0E20000BDE63006002942561676256F00761BFFF0E20000BD10
:208B1000E63006002942561676256F00761BFFF0E20000BDE63006002942561676256F002C
:208B2000761BFFF0E20000BDE63006002942561676256F00761BFFF0E20000BDE6300600DE
:208B30002942561676256F00761BFFF0E20000BDE63006002942561676256F00761BFFF0A8
:208B4000E20000BDE63006002942561676256F00761BFFF0E20000BDE63006002942561667
:208B500076256F00761BFFF0E20000BDE63006002942561676256F00761BFFF0E20000BDC0
:208B6000E63006002942561676256F00761BFFF0E20000BDE63006002942561676256F00DC
:208B7000761BFFF0E20000BDE63006002942561676256F00761BFFF0E20000BDE63006008E
:208B800029425616E28000BEFFF176177602761BFFF0E20000BDE63006002942561676253C
:208B90006F00761BFFF0E20000BDE63006002942561676256F0076408BBF7622761F01C04C
:208BA0001A1C000876FD7C80FF693E67761F01C0181CFFF7761AFF6976408CD19A129B0227
:208BB00076408BC776408C4A00067622761F01C056BF552556BFAA25761AFF690006762214
:208BC000761F01C056BF6829761AFF690006FE0297429641761F01C04311EF0676221A1189
:208BD0000010761A7625CC110180FFC6EC0576221811FE7F761A0E411EA69221901F80A9CA
:208BE00006A60FA7EC1676221A1100409241CD21FFE0901FCAA89621761AFF6976408BBF9E
:208BF000921190015201EDFD76221811FFBF761A92425201EC035202ED0976229003CD117C
:208C0000FE7FFF86CAA89611761A92425203ED127622CC11FE7F1AA9010096118F00038210
:208C1000FF69A8A9764093F1761F01C01A110180761AFE82FF690006FE047C439742964160
:208C20007622761F00224E01EF031801BFFF761F01C01A3000049003CD30FFFCCAA8963066
:208C30009242900FCD32FFF0CAA89632FF6976408BBF923490015201EDFD761F0022924301
:208C4000CD01BFFF9001FF8DCAA89601761AFF69FE8400067622761F01C056BF021BCC10E6
:208C5000FFFC500296101A1D00011A1D00021A1D00041A1D00081A1D00101A1D00201A1D51
:208C600000401A1D00801A1C00011A1C00041A1D40001A1D80001A1D01001A1D02001A1DB6
:208C700004001A1901001A1902001A1904001A1908001A1C00081A2000011A2000021A2016
:208C800000041A2001001A2002001A2004001A2008001A2040001A2080001A1C00101A1C29
:208C900001001A1C02001A1C04001A1C08001A1C10001A1C40001A1C0004761AFF6900061F
:208CA000FE027622761F002B2820FFFF2821FFFF2822FFFF2823FFFF2824FFFF2825FFFFA9
:208CB0002826FFFF2827FFFF761A761FFDFF9238964192399641923A9641923B9641923C92
:208CC0009641923D9641923E9641923F9641761F002B402FEE039A016F029A00FE82FF691A
:208CD00000067622761F01C01812FEFF1812FFFE1A1220001A1240001A120400761AFF6962
:208CE00000067622761F01C01812FBFF1A1200021A1220001A1240001A1200011812FFFB25
:208CF0001812FEFF761AFF6900067622761F01C01812BFFF8F00464EFF69A8A9764093F153
:208D0000761F01C01A1220001812FFFD1A1200011812FFFB1A1204001812FEFF761AFF69EB
:208D100000067622761F01C01A1000401A1240001812DFFF1812FFFD1A1200011812FFFBFA
:208D20001A1204001812FEFF761AFF690006FE08E20300445CADDC885CA47640935AE5A01A
:208D3000AD1456C3000AE2AF0048E8AFE0007700E20300466F0306481E46E2AF0046FE88CC
:208D40000006FE06761F03859A0093025300EC029A01761F01BF9001CD0EFFFBFF81CAA834
:208D5000960E761F03859A0093025300EC029A01761F01BF9001CD0EFF7FFF86CAA8960E5D
:208D6000761F01A81815FFF70604761F03841E3AE801FC00E284013A76408F4C761F0385E0
:208D7000E2AF0100E70000087700E2030044E6950000E2030046E812CC00AD1456C3001765
:208D8000E811F800AD1456C4000BE2AF0044E88FC00076408D27E20300446F08E2AF004411
:208D9000E84000007700E2030044E2AF0044764090A25200ED07E2AF004476409072520019
:208DA000EC05E590E20300446F09E8027C01E2AF004476409261E2030044E5A0AD1456C33F
:208DB000000EE6AF0000E68A000077007700BFA90F12FF54BDA90F126F03E68A0000761FC8
:208DC0000384E203003C063C761F01841E0CCC0AFFF05004960A761F018002021E04761AE0
:208DD000CC080002FFC05201EDFC1A080002FF69FE860006FE0202027640904A761F0384EC
:208DE0008A0002001EC48F00E13AF6032B847622761F01BE1816FFCF1A1A0004761A76226B
:208DF00018163FFF1A1A0080761AD401D501FF6928A91B059BB756BF014176408EF7761F36
:208E000001A02805FD20CC00C00050309600180300002B041807FFA028097E90280A7E903E
:208E100056BF920B280C0906180DFF3F180EFFF0180F7FC02B102B11921990F01AA91001F9
:208E20009619CC1ACCFC1AA91101961A181EF80076222B12CC14F0001AA90FFF96141815D5
:208E3000FF81CC31FCF0500496311832FCF092309A001AA9101096301813F000CC33FFC08A
:208E4000501096332B352B371834FFFE1820FF5F761AFF69FE8200060006FE387D447C430E
:208E5000974296417622761F01BE180DBFFFCC09CFFF1AA910009609180D7FFFCC093FFFB8
:208E60001AA940009609761A7622761F0180062C1E4C1A4C0008064C1E2C062A1E4E1A4E68
:208E70000008064E1E2A761A02001E00762219011E2406141E641A64100006641E14761A44
:208E800006181E60CC600010FFC35201EDFA762206161E62924193619CFF3CA897619243B7
:208E90009CFFCD62FFF89007CAA8966292429CFFCD62FF87900FFF82CAA89662927C9CFFA9
:208EA0009001CD62FF7FFF86CAA89662927B9CFF9003CD62FCFFFF87CAA8966206621E1694
:208EB00006141E641864EFFF06641E14761A06181E604460EEFD762206141E641864FFBFD7
:208EC0001A6420001A64040006641E14761A762206241E5402021E545CADFF69DC945DA4BA
:208ED0008F0060247640933C761A7622761F018006261E5202001E525CADFF69DC920202BB
:208EE0005DA48F0060267640933C761A7622761F018006201E581858FFFB1A5800011858B0
:208EF000FFFD06581E20761AFF69FEB80006AABD5AADDA85FE3E7D427C411E4402011E46C8
:208F000029018F00610056030342560100A4A87E2D420646563B1E46FF551E4818D4FFEF34
:208F1000761F018006001E7C02001E0092C25201ED058A7E06441EC46F0B0201077E8AA969
:208F2000CC4407FFFF81CDC4E003CAA896C48A7E18CCBFFF8A7E18CCDFFF0201077E8AA92C
:208F3000CCC47FFF88A956030FC2CAA696C406021E7A9241ED050646987A99796F04064858
:208F4000C07AC179067A1E020646987C997B067C1E00FEBE86BE00063ABDB2BDAABDA2BDB7
:208F5000FE022901BFA90F12FF58615B5CA8917F08A800801E4293A4FFD65CA8BFA90F16FA
:208F600061675DA8917F08A8008059A858A993A5FFD65DA893A471A518A8010097A618A4C9
:208F700000FF18A500FFDC7F92A49EA596A7644D08A9FF01623E93A192A0FF3659A858A976
:208F80000642FF35F60E1FA15BA901A3F60A1FA1562D04A22DA336A0FF40F60B1FA1FF3328
:208F90009B00FF30FF540CA295A3FF4008A70001F61FFF770920FF4008A70001F61FFF77A1
:208FA000FF5A92A7652208A9FF016313A9A9FF46917F5BA85AA925A695A7FF960CA295A342
:208FB000BDA90F12FE8282BE86BE8BBE8EBE00069B00FF5708A8FF7FFF5A93A660F228A8A8
:208FC000800071AA92AB6FEDFF2000006FEAFF5A93A418A80100FF965CA8A9A908A8FF7F7B
:208FD0001CA88000CBA46FDD8F000C00761F0384A8140200761F003019011E022B062B07AB
:208FE0001A0400101A0400208F000C08761F0384A8048F000C10A80C761F0030020019015A
:208FF0001E0A761F0030020019011E12761F00302B0E2B0F761F00302B162B17761F0030E3
:209000001A0C0010761F00301A140010761F00301A0C0020761F00301A1400200006FE08ED
:20901000E2030146E2030044A84206441EE48A4206461EF4E2AF0044E2AF0146E7000008EF
:209020007700E68800007700E20300488A428AC4064819011ED48A428AC42BF48A428AC4E0
:209030002BFC8A428AC41AE400108A428AC41AE400208A428AC418E4FBFF8A428AC418E473
:20904000F7FF8A428AC41AE440008A4202001ED4FE880006FE021E42764092C2761F0384F0
:20905000E2030030764092DB761F0384E2030036764091E0761F0384E203002E764091F9FB
:20906000761F0384E203003476409202761F0384E203002C7640921B761F0384E2030032AE
:20907000FE820006FE04E2030044761F0384E2AF0144E2AF002EE6940001AD14EC07E2AFBE
:20908000002CE6940001AD14ED039A016F029A00FE840006FE04E2030044761F0384E2AF72
:209090000144E2AF0034E6940001AD14EC07E2AF0032E6940001AD14ED039A016F029A00F2
:2090A000FE840006FE04E2030044E2AF0144E6940001AD14EC039A016F029A00FE840006CE
:2090B000FE04E2030044E2AF0144E6940001AD14EC039A016F029A00FE840006761F038529
:2090C000920B0A0B5200EC0556BF010A0B0B6F0A7640924B76408D4176409253761F03851D
:2090D0000B0B0006FE0656BF0141E801FC00E2030044E80215A0E2030046764093CA764068
:2090E000910F764093CC761F03848A0002001EC476408DDAE2AF0044E2AF014676409224FB
:2090F000761F03848A00BE0006C4ED02BE017E417640924B764093C39241EC0B761F038440
:209100008A00BE0006C4ED02BE017E419241EDF776408E4C764093C79A00FE860006FE0255
:2091100076408BBF7622761F01C01A1C000876FD7C80FF693E67761F01C0181CFFF7761A87
:20912000FF6976408CD19A099B0376408BC776408C4A7622761F01C02B1B761A3B10762634
:209130000000762F0000FF69764092EC7640931456BF02419A05D403D5019B0556BF0142E5
:2091400076408E4D76408FD4764092947640929E764093A87622761F01BE02001E021E0482
:209150001E121E14761AFE82FF69000628AD0002FF69561F5616561AE61002002940761F99
:2091600000002902761B762228A993CD28A800000901611B76C093CD29046F0F9B0024A96B
:20917000DF016C04290424A8DF011EA6F7A1248606A781A109011EA724A96303FF5C3B0445
:2091800059A9DF010009FFEC761A28A9FFFF28A8FFFF0901610E76FFFFFF6F06DF01C3BD0B
:209190001EA73E67C5BE24A9DF0124A8FF5860F77640937676409391761BFFF00005ABBD25
:2091A000A8BDA0BDC2BDC3BDE20000BDE20300BDE20301BDE20302BDE20303BDE6300600A5
:2091B000FE02FF6929425616761F0033922296411822FFBFF6057700762FFFFE56BF0121CA
:2091C000762300012910FF69764090BE3B109241761F00339622FE82E2AF03BEE2AF02BE8F
:2091D000E2AF01BEE2AF00BEE28000BEC5BEC4BE83BE8ABE87BE00033B30FFF1761776028A
:2091E000FE0802201E42E590E20300440F42ED06764091F9E20300446F099A0028A87FF04B
:2091F0001E4602001E4806481E44E2AF0044FE880006FE029A0028A87F801E42E2AF0042E6
:20920000FE820006FE0802201E42E590E20300440F42ED067640921BE20300446F093B011E
:20921000FF2FFFE01E4602001E4806481E44E2AF0044FE880006FE023B01FF2FFF001E428B
:20922000E2AF0042FE820006FE04E2030144E203004276408FD4E8024BA0E2AF01428F0031
:20923000E114E8092000E30208447640900F761F00301804FFEF7622761F00358F00919CA5
:20924000A80C761A761F00331A22004076230001FF69FE8400063B10761F00331A2200406D
:209250002910FF6900063B10761F00331822FFBFF6057700762FFFFE56BF01212910FF6960
:209260000006E20304BDE20305BDFE04E6CF0004E6CF000DE6CF0021E6CF0028E6950009E7
:20927000E6950000E0204944E2AF0044E6940001AD14ED03E5906F13E6CF0020E6CF00292B
:2092800076408F4C5CADDC845CA47640935AE2AF0044E70000287700E7200020FE84E2AF9C
:2092900005BEE2AF04BE00067622761F01BE180CFFDF1A060C00761AFF690006761F01A84C
:2092A0002B162818FFFF1814FEFF1815FFEF02001E021A1500201815FF3F1815FDFF1A15B7
:2092B00000011814C1FF1815FFF91814FFFE1814FFFD56BFFF181A1500081A1500101A146B
:2092C00001000006FE0802201E42E590E20300440F42ED06764092DBE20300446F093B011D
:2092D000FF2FFFF01E4602001E4806481E44E2AF0044FE880006FE025CAD8F40E1020202C5
:2092E000DC825CA47640933C3B01FF2FFF801E42E2AF0042FE8200063B10761F003318209E
:2092F000FFFE2B222B242B262B282B2A2B2C2B2E2B302B322B342B362B382B232B252B2751
:209300002B292B2B2B2D2B2F2B312B332B352B372B39FF690006761F00331A200001282157
:20931000FFFF2910FF690006FE068F00E000A8448F000D00A846020607441E4402060746A5
:209320001E4676222B419241527D56C3000F83468A44A0A9C4840902A8441E46C2C50A41A6
:209330009241527D56C4FFF5761A761F00331A200001FF69FE8600065200A8AB8EA4EC081D
:2093400080A9DF8188A780857F80000EFFFE88A90FA6EC0F5300EC0D9DFF5CA876BFFFFE47
:2093500092859680000EFFFE92859680000CFFF8A9A40006FE02E8125800AD1456C2000A0D
:20936000E8165800AD1456C40005E5A0AD14ED05E20300C4E5906F09E68800017700E68994
:2093700000097700E02201C4FE82000628ABFFFF28AAFFFF28A9FFFF28A8FFFF0FABED0427
:20938000BE00D4006F0928ABFFFF28AAFFFFA9A488C409028AA992A6764090D2000677007E
:209390006F00761F0384B2BDC53E59A93E67761F03850606EC041EA792A13E67761F038546
:2093A0000604EC031EA73E677640938F8BBE00067622761F01BECC06FFFC50019606761AED
:2093B000FF690006761F0385A8080006761F0384A83E00060006561F7622B9C0282900680F
:1A93C000761A0040915629102920FF6900063B10FF69000600060006000621
:2093CD00FFFEE144000000000000FFFEE146000000000000FFFFE14A00000000FFFFE14BE7
:2093DD0000000000FFFDE1400000A9504CAB0001FFFEE13E000093BA0000FFFEE1480000D3
:0893ED0093BA0000000000002B
:0893F100190156C3FFFF00063D
:00000001FF
