:0400000000409FBE5F
:08012200190156C3FFFF00069E
:20012600764002297622FF697640B784761F174C1A3C00011A3C00021A3C00041A3C000888
:200136008F05D1B692C4ED098F007BDD761F1746A836A838A83AA83C761F174C183CFFFE9C
:20014600183CFFFD183CFFFB183CFFF7761A9A01D400D5019B14FF697640023776400157C8
:2001560000067622761F174C1A2200011A2200041A2200081A2200101A2200201A2300014C
:200166001A2300041A2400011A2400021A2600011A2600021A2600041A2600081A2600105A
:200176001A2600201A2600401A2600801A2601001A2602001A2604001A2608001A28000177
:200186001A2800021A2800041A2800081A2800101A2800201A2A00011A2A00021A2A0004FE
:200196001A2E00011A2E00021A3000011A3000021A3000041A3000081A3200011A320002E4
:2001A6001A3200041A3400011A3400021A3600011A3600021A3800011A3800021A390001AC
:2001B6001A3A00011A3C00011A3C00021A3C00041A3C00081A3E00011A3E00021A3E00045E
:2001C6001A3E00081A3E00101A3E00201A3E00401A3E0080761F174D1A0300011A03000233
:2001D6001A030004761AFF69000676220200761F174C1E221E241E261E281E2A1E2E1E306A
:2001E6001E321E341E361E381E3A1E3C1E3E761F174D1E02761AFF69000676226F059A02E0
:2001F60028A85A5A1E24761F1400922490035202EDF7761AFF69000676226F059A0128A884
:200206005A5A1E24761F1400922490035201EDF7761AFF69000676229A0028A85A5A761F70
:2002160014001E24761AFF6900067622761F01C0CC25FF0050559625CC25FF0050AA962591
:20022600761AFF690006FE027622761F01C0922990079641924150689629761AFF69FE82E1
:200236000006FE067D447C4397429641761F17488841920890030EA90FA6ED1488429214A7
:20024600907F0EA90FA6ED0E8843CC140300FFC70EA90FA6ED0788449222903F0EA90FA693
:20025600EC678841920890030EA90FA6EC116F0A764003786F0D764003826F0A7640038CB7
:200266006F079241ECF95201ECFA5202ECF27622761F174888429214907F0EA90FA6ED0873
:200276008843CC140300FFC70EA90FA6EC27180EFFFD1822FFC006141E468F00FC80A8AB7E
:2002860093AB92AACF46CE4527A82FA956030843CA4288A9A9A9AFA61E141A0E0001921684
:2002960090015201EDFD9242CD14FF80907FCAA89614921690015201EDFD9244523FEC084A
:2002A6009C01CD22FFC0903FCAA896226F06CD22FFC0903FCAA896221A0E0002F6647700DD
:2002B6009244CD22FFC0903FCAA89622761AFE86FF690006FE087D447C4397429641761F5E
:2002C60017488841920A90030EA90FA6ED1E8842921E907F0EA90FA6ED188843CC1E030098
:2002D600FFC70EA90FA6ED118844922490030EA90FA6EC756F0A764003986F0D764003A255
:2002E6006F0A764003AE6F079241ECF65201ECF75204ECF80E42761F17481EA6921E907FB6
:2002F60080A906A60FA7ED0A0E431EA6CC1E0300FFC780A906A60FA7EC2976221A24000325
:20030600061E1E488F00FC80A8AB93AB92AACF48CE4727A82FA956030843CA4288A9A9A96F
:20031600AFA61E1E1A180001761A922090015201EDFD76229242CD1EFF80907FCAA8961EE8
:20032600761A922090015201EDFD56BF03456F1976229245CD24FFFC9CFF9003CAA896240D
:20033600761A0B450E441EA69224900380A906A60FA7EC078F000256FF69A8A97640012271
:200346000E44761F17481EA69224900380A906A60FA7EDDF76221A180002761AFE88FF69A3
:20035600000676220200761F17C019011E10020019011E12020019011E14020019011E1649
:200366000200761F17C119011E10020019011E12020019011E14020019011E16761A9A00AC
:20037600FF6900067622761F1748CC08FFFC50029608761AFF6900067622761F1748180804
:20038600FFF71808FFFC761AFF6900067622761F17481808FFEFCC08FFFC50019608761A60
:20039600FF6900067622761F17481808FFF7180AFFFC761AFF6900067622761F1748180870
:2003A600FFEFCC0AFFFC5001960A761AFF6900067622761F1748CC0AFFFC5002960A761AAA
:2003B600FF6900067622761F174D1836FFFC761A7621FF6900067622761F174DCC36FFFCBC
:2003C60050019636761A7621FF6900067622761F174DCC36FFFC50029636761F1748180E9F
:2003D600FFFD180EFFFE761A7621FF6900067622761F174D1A360003761AFF69764001DBE5
:2003E6007622761F1748180EFFFD180EFFFE761A7621FF690006761BFFF0E20000BDE6305C
:1403F6000600294256167625E28000BE3B30FFF176177602FB
:20900000FE067C431E426F2B28A909059B641E466F3228A909069B651E466F2D02001901B4
:209010001E466F299243ECF15201ECF46FF828A909079B661E466F1F28A909089B671E46DC
:209020006F1A020019011E466F169243ECF15201ECF46FF8020019011E466F0DC4428F04C1
:209030008000A8A90FA6ECDF8F04A000A8A90FA6ECED6FF1FE860006FE089645A044A84224
:2090400006441E482B469245544656C500113B018348C4A5854607428AA9DE01C24892C45C
:209050003CC50A469245544656C2FFF4FE880006FE089645A044A84206441E482B46924500
:20906000544656C500123B018A48A8A909011E48C6C488A9854607428AA97EC40A469245EF
:20907000544656C2FFF3FE880006FE041E428A4256BF01C48A4228C480008F000100A8A98F
:2090800007428AA94FC4EEFA8F000102A8A907428AA956BFB0C48F000108A8A907428AA90C
:209090002BC48F00010AA8A907428AA92BC48F00010CA8A907428AA92BC48F00010EA8A934
:2090A00007428AA92BC48F000122A8A907428AA956BFB0C48F000128A8A907428AA92BC4C9
:2090B0008F00012AA8A907428AA92BC48F00012CA8A907428AA92BC48F00012EA8A907425A
:2090C0008AA92BC456BF01439243522056C200258F000100A8A907428AA94FC4EEFA8F00AA
:2090D00001008843A8A907428AA97EC48F000120A8A907428AA94FC4EEFA8F0001205D43DD
:2090E000A8A907428AA9DD017DC4084300029243522056C5FFDF8F000102A8A907428AA998
:2090F00056BF0CC48F000122A8A907428AA956BF0CC456BF01439243522056C200258F00AB
:209100000100A8A907428AA94FC4EEFA8F0001008843A8A907428AA97EC48F000120A8A91B
:2091100007428AA94FC4EEFA8F0001205D43A8A907428AA9DD017DC40843000292435220F8
:2091200056C5FFDF8A4206E4FE840006FE021E428A428342CCC4FFFE96C5FE820006FE0299
:209130001E428A4292C4500196C4FE820006FE047C431E4276226F14761F17489243CD0A90
:20914000FFF39003FF81CAA8960A761F17489243CD0AFFCF9003FF83CAA8960A6F0CC442E2
:209150008F048000A8A90FA6ECE88F04A000A8A90FA6ECEC761AFE84FF690006FE06A84491
:209160001E42020C07428AA906C41E4629018F007000A8A9CE468A44CF45FF4B9C0196CC1E
:209170008F000F00A8A9CE468A44CF45FF479C0196C406469B008A4490C0FF459C0196D46D
:209180008F0F0000A8A9CE46CF458A44FF4993A99246903FCBA99D0197DCFE860006FE0CA6
:209190001E425CADA3500200DC92F61F561700C4A9440200A350F61F56170044A9A90F5252
:2091A00056C90005020107441E448F003400A8A90F4456C8005F020D1E4602050F4656C60C
:2091B0000052A3440200F61F56170046A9488746564400480F44ED3F06468F0081C0190543
:2091C000560100A40EC41E4A8A4292C4964B504196C4064819018F0F0000FF39FF5AA8A984
:2091D00088A992ABCEA627A992A893AACFA92FA8064819019B00903FCB49CA4ACBAACAAB23
:2091E0001E4A884A020C07428AA97EC4064A0EA81EA6020E07428AA97EC48A42924B96C4CE
:2091F000874656650048A9A60200A350F61F561700A66F1002015641004602050F4656C949
:20920000FFB2020107441E44A8A90F4456C7FFA53100FE8CA9A90006FE08A8441E428A4257
:2092100092C49647504196C48A4492CC9CFF56030CA918A970000EA91E4692C49CFF5603B5
:2092200008A918A90F000EA99846994592D49CFF560306A990C00EA99846994592DC9CFF65
:20923000903F0EA99846994592DC9CFF56030AA988A98F0F0000A8A989A6984692A8984583
:209240008846020C07428AA97EC406460EA81EA6020E07428AA97EC41847FFBF4047EF034A
:209250001847FFFE8A42924796C4FE880006FE087D43A8461E425C43764090001E488A46E8
:209260007640979B0648764097C7FE880006FE067C431E42764090001E46764097B0064602
:209270007640985FFE860006FE021E428A4283429246CAC496C58A4283420646CBD497D50D
:20928000FE820006FE021E428A4283429246FF5ECEC496C58A4283420646FF5FCFD497D5EB
:20929000FE820006FE067C431E426F10021007428AA906C41E466F0F02B007428AA906C464
:2092A0001E466F0902001E466F069243ECF05201ECF46FF9FE860006FE021E428F008000B2
:2092B000A8A90F46ED048A4206E46F1E8F000100A8A907428AA94FC4EEFA8F000102A8A989
:2092C00007428AA956BF08C48F000100A8A907428AA9924690FF96C48F000100A8A90742E9
:2092D0008AA94FC4EEFAFE820006FE047C431E428A4292C496449243EC041844FFDF6F033C
:2092E0001A440020924496C4FE840006FE021E428A4245C4EF039A006F029A01FE820006E5
:2092F000FE067C431E426F1A8A4206E41E466F1F028807428AA906C41E466F19029C074267
:209300008AA906C41E466F1302C407428AA906C41E466F0D02001E466F0A9243ECE65201A5
:20931000ECE85202ECEC5203ECF06FF5FE860006FE08A046A8441E42020807428AA992C40A
:2093200096478A44CC477F00FFC70EA91EC48A46924790FF0EA91EC44F47EF039A016F022C
:209330009A00FE880006FE107D45A8441E422B4F8F000100A8A907428AA94FC4EEFA834442
:209340008F0007FFA8A90FC556C800058A4442E4EF0456BF01506F022B509A009B931E48C9
:2093500002001E4C1E4E1E4A6F231A4E0100FF2F40001E4C56BF014F6F2D1A4E01006F2AE7
:20936000FF2F40001E4C8F001000A84E28A9FFFF28A81FFF1E4A1A4700406F1CFF2F4000C1
:209370001E4C8F001200A84E56BF014F6F139245520256C2000A5202EC0D5200ECD75201F3
:20938000ECDDFFEF00A25203ECDC5204ECE8FFEF009C8A4443E4EF0F9250EC0606D418A842
:209390001FFF1E4A6F0806D428AC0012563B56081FFC1E4ABE2806E49B0090280FA6ED03C6
:2093A0001A498000BE1806E49B0090180FA6ED031A49400006E49B009038FF58EC051A4E82
:2093B00010001A4700401A4700209250EC0A06C418A81FFFCA4CCB4B1AA8C0001E4C6F0C58
:2093C00006C428AC0012563B56081FFCCB4BCA4C1AA880001E4C06F49B00900F984E994DFB
:2093D00049E4EE031A4E008040E4EF031A4E080041E4EF031A4E0400924FEC0E02088F40BA
:2093E000011007448AA9C444A0A907428AC483A992F67640903C06488F0001020EA81EA666
:2093F000A8A907428AA97EC4884A8F000104A8A907428AA97EC4064A8F0001060EA81EA679
:20940000A8A907428AA97EC4884C8F000108A8A907428AA97EC4064C8F00010A0EA81EA65C
:20941000A8A907428AA97EC48F00010C884EA8A907428AA97EC48F000100A8A907428AA94F
:20942000925490FF96C4FE900006FE0E7D45A8441E429A009B731E489245EC031A47000C6E
:2094300006488F0001220EA81EA6A8A907428AA97EC48F000120A8A907428AA9925290FFA3
:2094400096C48F000120A8A907428AA94FC4EEFA8F000124A8A907428AA906C41E4A8F00F8
:209450000128A8A907428AA906C41E4C8F00012CA8A907428AA906C41E4E8A4402001EE441
:20946000484EEE034D4BEE05484EEF064D4BEE048A441AE400404E4BEF0A8A44064C18A847
:209470001FFF1EC48A441AE400046F09064C8A4428AC001256081FFC56221EC44E4EEF042C
:209480008A441AE401004C4EEF344E4BEF128A44064A18A81FFF1ED48A4428A9FFFF28A84D
:209490001FFF0FD4ED0346E4EE181AE400086F15064A8A4428AC001218A81FFF56221ED4C5
:2094A00083448F0007FFA8A90FD5ED048A4446E4EE048A441AE40008064A56088000EC044E
:2094B0008A441AE400284E49EF048A441AE400184B4EEF048A441AE400014A4EEF048A4488
:2094C0001AE400024F4EEF308A44064E9B00900F1EF48A4446E4EE0E02088F400130074419
:2094D0008AA9C444A0A907428AC483A992F6764090588F000122A8A907428AA956BF04C4B3
:2094E0008F000120A8A907428AA9925290FF96C48F000120A8A907428AA94FC4EEFA8A44DC
:2094F0001AE400806F048A4402001EF4FE8E0006FE021E428F000100A8A907428AA94FC427
:20950000EEFA8F000102A8A907428AA956BFA0C48F000108A8A907428AA92BC48F00010A9D
:20951000A8A907428AA92BC48F000100A8A907428AA9924690FF96C4FE820006FE021E427B
:20952000025007428AA9924698C4FE820006FE021E42025007428AA99246FF5EC0C4FE823C
:209530000006FE021E428846025807428AA97EC4FE820006FE021E42025407428AA90646CB
:2095400089C4EC039A016F029A00FE820006FE08E20300445CADDC885CA476409F67E5A0C6
:20955000AD1456C3000AE2AF0048E8AFE0007700E20300466F0306481E46E2AF0046FE88A4
:209560000006FE12761F0208E2AF0012E5A0AD1456C500D5761F002C9200761F0207963A9C
:20957000E2C4013A761F0208E2AF000EE7000008E2AF030CE72000187700E2030044E5A0E9
:20958000AD1456C30010761F020792369C0196459236544556C900042845FFFF9245963671
:209590006F11E5A0AD1456C5000E761F020792369CFF96459236544556C700032B45924528
:2095A0009636761F02079236528C56C7000556BF8C366F0652C856C9000456BFC836923615
:2095B000963C761F0105962B9BB728A91B011E5002001E4E761F0207C63C9652923CFFC736
:2095C000965102021E4A5CADDC920EA41E4802011E4C1A4C00048F04808841C4EEFF8F04B2
:2095D0008000BE02A8A95CADD500C242DC905CA476409333761F002C9221761F0207963B3D
:2095E000E2C4013B761F0208E2AF0010E700000876409547E203004476409D305200ED07D6
:2095F000E2AF004476409D005200EC05E590E20300446F09E8023C01E2AF004476409EA6E4
:20960000E2030044E5A0AD1456C3000CE6AF0000E68E000077007700BFA90F12FF5C6F0765
:20961000E68E000077007700BFA90F12761F0207963D9BB728A91B051E5002001E4EC63DBC
:209620009652923DFFC7965102021E4A5CADDC920EA41E4802011E4C1A4C00048F04808859
:2096300042C4EEFF8F048000BE03A8A95CADD500C242DC905CA476409333FE92000602029E
:2096400076409CD8761F02078A0A02001EC48F0081FAF6032B848F0081F6F6002B847640B7
:209650009A9976409A43761F01D01A0D00017622761F174C1A2600021823FFFB761A761F7A
:20966000010556BFF923761F0104CC00C00050329600761F010518210000761F01042B04D8
:209670001808FFA01809FFAF761F010556BF962B282D7D0056BF8C2F56BF7C3156BF600002
:2096800056BF90021807FF3F1809FFF0761F0104CC0C7FC0500B960C761F0105CC11C000D0
:20969000500F9611CC13C000500F9613761F0106922490801AA910019624CC26CCFC1AA9A0
:2096A00011019626761F01041814F8007622761F01062B00CC04F0001AA90FFF9604180D6F
:2096B000FF81761F0107CC03FCF0500496031804FCF092009A001AA910109600761F01068C
:2096C0001802F000761F0107CC07FFC0501096072B092B0B1808FFFE761F01041820FF5F9D
:2096D000CC38FFF050019638CC38FF0F50109638CC38F0FF1AA901009638CC380FFF1AA9CE
:2096E00010009638CC39FFF050019639761A7622761F174C1A230004761AFF6976409AB41B
:2096F00076409A6E761F01D21A0D00027622761F174C1A2602001823FFFB761A761F0125B9
:20970000282303E8761F0124CC00C00050309600761F012518210000761F01242B041808BA
:20971000FFA01809FFAF761F01252B2B282D7D00282F7D0028317D0056BF120028020906DE
:209720001807FF3F1809FFF0761F0124180C7FC0761F01251811C0001813C000761F012654
:20973000922490801AA910019624CC26CCFC1AA911019626761F01241814F8007622761F6F
:2097400001262B00CC04F0001AA90FFF9604180DFF81761F0127CC03FCF050049603180466
:20975000FCF092009A001AA910109600761F01261802F000761F0127CC07FFC05010960756
:209760002B092B0B1808FFFE761F01241820FF5FCC38FFF050099638CC38FF0F5090963838
:20977000CC38F0FF1AA909009638CC380FFF1AA990009638CC39FFF050099639761A7622D5
:20978000761F174C1A230004761A761F02072B36FF69000600069A007608293093BE40A8E3
:20979000EF029A0100069A0076083B3093BE40A8EF029A010006FE04A8441E4276220EA83D
:2097A0005DAD8F000D00FF69FF30DD845DA5560100A4020276409F49761AFF69FE840006EC
:2097B000FE041E428F0003F1A84476220EA85DAD8F000D00FF69FF30DD845DA5560100A4DF
:2097C000020276409F49761AFF69FE840006FE041E420EA81E427622761F00331A20000154
:2097D000FF6976409793964302200F4256C60038027F0F4256C80034064229018F000CE27E
:2097E0001920FF42FF30560100A492429B019CE090072DA9FF6799C47700770077007700CD
:2097F00077000642FF691920FF422DA99A01FF66764098E429010642761F00331920FF42FC
:209800002DA99A01FF66962106421920FF422DA99A01FF6620A8CAA823A96F4902800F4292
:2098100056C60036064229018F000CE21980FF42FF30560100A492429B0108A9FF809007BC
:209820009C082DA9FF6799C4770077007700770077000642FF691980FF422DA99A01FF6638
:20983000764098E429010642761F00331980FF422DA99A01FF66962106421980FF422DA94D
:209840009A01FF6620A8CAA823A96F11020D0F4256C6000E02100F4256C8000A92429CFFFE
:209850002DA99A01FF6620A8CAA823A9761A9243ED04FF697640978BFE84FF690006FE0494
:209860001E420EA81E427622FF6976409793964302200F4256C60030027F0F4256C8002CDE
:20987000064229018F000CE21920FF42FF30560100A492429B019CE090072DA9FF67FF5F28
:20988000C1C4770077007700770077000642FF691920FF422DA99A01FF66764098E4290194
:209890000642761F00331920FF422DA99A01FF6696216F4202800F4256C6002E0642290161
:2098A0008F000CE21980FF42FF30560100A492429B0108A9FF8090079C082DA9FF67FF5FB2
:2098B000C1C4770077007700770077000642FF691980FF422DA99A01FF66764098E4290104
:2098C0000642761F00331980FF422DA99A01FF6696216F12020D0F4256C6000F02100F42A2
:2098D00056C8000B92429CFF2DA99A01FF66FF5E20A8CEA823A9761A9243ED04FF6976402F
:2098E000978BFE84FF690006FE0296416F31762FFFFE6F7B762FFFFD6F78762FFFFB6F7548
:2098F000762FFFF76F72762FFFEF6F6F762FFFDF6F6C762FFFBF6F69762FFF7F6F66762F35
:20990000FEFF6F63762FFDFF6F60762FFBFF6F5D762FF7FF6F5A762FEFFF6F57762FDFFF5D
:209910006F54762FBFFF6F51762F7FFF6F4E5280884156C2001E5280ECE0520856C200127E
:209920005208ECCF80A68F008000A8A90FA7ECED92A65201ECBD5202ECBE5204ECBF6F3526
:209930005210ECC25220ECC35240ECC46F2E1BA6080056C200181BA60800ECCB80A68F00D9
:209940000100A8A90FA7ECBC80A68F000200A8A90FA7ECB988A68F000400A8A90FA6ECB68B
:209950006F1480A68F001000A8A90FA7ECB580A68F002000A8A90FA7ECB288A68F00400090
:20996000A8A90FA6ECAF6F01FE820006FE067C439742964176409A098F0703AC0EC48F00DE
:20997000FFFF0FA4EC0E5603024188A95603014294A69443964476C703AC3E6796456F7F7E
:209980002B456F7D761F01D09242CD01FFBF9001FF85CAA8960192439001CD01FF7FFF8650
:20999000CAA896019245963B9242ED72761F01D1183000001832000018360000183800003C
:2099A0006F67761F01D29242CD01FFBF9001FF85CAA8960192439001CD01FF7FFF86CAA842
:2099B00096019245963B9242ED53761F01D3183000001832000018360000183800006F48F4
:2099C000761F01D49242CD01FFBF9001FF85CAA8960192439001CD01FF7FFF86CAA896015F
:2099D0009245963B9242ED34761F01D5183000001832000018360000183800006F29761F12
:2099E00001D69242CD01FFBF9001FF85CAA8960192439001CD01FF7FFF86CAA896019245FB
:2099F000963B9242ED15761F01D7183000001832000018360000183800006F0A9241EC8358
:209A00005201ECA05202ECBD5203ECDA6F01FE860006FE0296416F2D8F0703B40EC48F0034
:209A1000FFFF0FA4EC2F76C703B43E676F2B8F0703B20EC48F00FFFF0FA4EC2476C703B2D8
:209A20003E676F208F0703B00EC48F00FFFF0FA4EC1976C703B03E676F158F0703AE0EC460
:209A30008F00FFFF0FA4EC0E76C703AE3E676F0A5200ECD35201ECDC5202ECE55203ECEE50
:209A40006F01FE820006FE027622761F01D08F018000A310A84218AB7FFF18AAFFF8934296
:209A5000CBAB97429241CAAA964106421E10CC11FE0F50109611CC10FE0050069610180A2A
:209A6000FFFCCC3B00FF933B3CA8973B1A0000041809FFE0761AFF69FE820006FE0276222D
:209A7000761F01D28F018000A312A84218AB7FFF18AAFFF89342CBAB97429241CAAA964183
:209A800006421E12CC13FE0F50109613CC12FE0050069612180AFFF3CC3B00FF933B3CA8B3
:209A9000973B1A0000041809FFE0761AFF69FE8200067622761F174C1A3C0001761F01D0FB
:209AA0001801FFF09A00D4009B00FF6976409966761F01D01A0000808F009C3EA8A9764008
:209AB0000122761AFF6900067622761F174C1A3C0002761F01D21801FFF09A01D4009B0013
:209AC000FF6976409966761F01D21A0000808F009C3EA8A976400122761AFF6900063ABDDF
:209AD000B2BDAABDA2BDFE022901BFA90F12FF58615B5CA8917F08A800801E4293A4FFD6CB
:209AE0005CA8BFA90F1661675DA8917F08A8008059A858A993A5FFD65DA893A471A518A8A7
:209AF000010097A618A400FF18A500FFDC7F92A49EA596A7644D08A9FF01623E93A192A028
:209B0000FF3659A858A90642FF35F60E1FA15BA901A3F60A1FA1562D04A22DA336A0FF4058
:209B1000F60B1FA1FF339B00FF30FF540CA295A3FF4008A70001F61FFF770920FF4008A7AE
:209B20000001F61FFF77FF5A92A7652208A9FF016313A9A9FF46917F5BA85AA925A695A7A5
:209B3000FF960CA295A3BDA90F12FE8282BE86BE8BBE8EBE00069B00FF5708A8FF7FFF5AFC
:209B400093A660F228A8800071AA92AB6FEDFF2000006FEAFF5A93A418A80100FF965CA814
:209B5000A9A908A8FF7F1CA88000CBA46FDDFE0A7D467C45974496437622761F174C1A3656
:209B60000001761F01F2180CFF7FCC203FFF1AA940009620CC063FFF1AA9400096061A020C
:209B70003000180CFFBFCC20CFFF1AA910009620CC06CFFF1AA910009606761A29019243E2
:209B80005D459CFF5C4418A903C0DD8156030AA91EA756030CA588A9DC8106A7AFA61EA7D6
:209B9000560308A488A95C4D06A7AFA61EA7DC81560306A488A906A7AFA61EA792439CFF47
:209BA000903F88A906A7AFA61E488F048000FF69A8A9764090758F448000D400A0A9764090
:209BB00091378F04800092C49649504196C492488F04800C96C48F04800E064897C48F04EA
:209BC0008000924996C48F0480D82BC48F0480DA2BC402028F0480001E42A8A97640927496
:209BD00002018F0480001E42A8A97640951E8F048000A8A976409126FE8A0006FE02764030
:209BE00002297622FF697640B784761F174C1A3C00011A3C00021A3C00041A3C00088F0556
:209BF000D1B692C4ED098F007BDD761F1746A836A838A83AA83C761F174C183CFFFE183C88
:209C0000FFFD183CFFFB183CFFF7761A9A01D400D5019B28FF69764002377622761F174C31
:209C10001A2200011A2200041A2200081A2200101A2200201A2300011A2300041A2400020C
:209C2000761A7622761F1748182CFFF8761A3B1076260000762F0000FF6976409ED9764066
:209C30009F0156BF02419A14D404D5019B0556BF014276409B5776409C5C76409F2976225C
:209C4000761F01F002001E021E04761F01F11E021E04761F01F21E021E04761F01F31E02FE
:209C50001E04761F01F41E021E04761F01F51E02761AFF69FE8200068F000C00761F0207A4
:209C6000A81E0200761F003019011E022B062B071A0400101A0400200200761F02071E2070
:209C70008F000C08A80E8F000C10A816761F003019011E0A761F0030020019011E12761F65
:209C800000302B0E2B0F761F00302B162B17761F00301A0C0010761F00301A140010761F46
:209C900000301A0C0020761F00301A140020761F020702001E101E180006FE08E2030146EF
:209CA000E2030044A84206441EE48A4206461EF4E2AF0044E2AF0146E70000087700E6889A
:209CB00000007700E20300488A428AC4064819011ED48A428AC42BF48A428AC42BFC8A4236
:209CC0008AC41AE400108A428AC41AE400208A428AC418E4FBFF8A428AC418E4F7FF8A4208
:209CD0008AC41AE440008A4202001ED4FE880006FE021E427640B7CF761F0208E203000478
:209CE0007640B7E8761F0208E203000A76409E25761F0208E203000276409E3E761F020851
:209CF000E203000876409E47761F0208E203000076409E60761F0208E2030006FE82000684
:209D0000FE04E2030044761F0208E2AF0144E2AF0002E6940001AD14EC07E2AF0000E694D6
:209D10000001AD14ED039A016F029A00FE840006FE04E2030044761F0208E2AF0144E2AF22
:209D20000008E6940001AD14EC07E2AF0006E6940001AD14ED039A016F029A00FE840006FB
:209D3000FE04E2030044E2AF0144E6940001AD14EC039A016F029A00FE840006FE04E203D2
:209D40000044E2AF0144E6940001AD14EC039A016F029A00FE840006761F0208921B0A1B1F
:209D50005200EC0556BF011A0B1B6F0A76409E907640956176409E98761F02080B1B00069A
:209D6000FE0656BF01412844CCCD28433D4CE8021A40E203004676409FCD76409BDE761F3A
:209D700002078A0A02001EC47640963FE2AF0044E2AF014676409E69761F02078A0ABE006D
:209D800006C4ED02BE017E4176409E9076409FC69241EC0B761F02078A0ABE0006C4ED021A
:209D9000BE017E419241EDF77640978A76409FCA9A00FE86000628AD0400FF69561F561642
:209DA000561AE61002002940761F00002902761B762228A99FCE28A800000901611B76C01F
:209DB0009FCE29046F0F9B0024A9DF016C04290424A8DF011EA6F7A1248606A781A109010B
:209DC0001EA724A96303FF5C3B0459A9DF010009FFEC761A28A9FFFF28A8FFFF0901610E75
:209DD00076FFFFFF6F06DF01C3BD1EA73E67C5BE24A9DF0124A8FF5860F776409F83764089
:209DE0009F9E761BFFF00005ABBDA8BDA0BDC2BDC3BDE20000BDE20300BDE20301BDE203AF
:209DF00002BDE20303BDE6300600FE02FF6929425616761F0033922296411822FFBFF6054E
:209E00007700762FFFFE56BF0121762300012910FF6976409D4C3B109241761F003396227A
:209E1000FE82E2AF03BEE2AF02BEE2AF01BEE2AF00BEE28000BEC5BEC4BE83BE8ABE87BE7D
:209E200000033B30FFF176177602FE0802201E42E590E20300440F42ED0676409E3EE203DE
:209E300000446F099A0028A87FF01E4602001E4806481E44E2AF0044FE880006FE029A0006
:209E400028A87F801E42E2AF0042FE820006FE0802201E42E590E20300440F42ED0676405A
:209E50009E60E20300446F093B01FF2FFFE01E4602001E4806481E44E2AF0044FE8800062D
:209E6000FE023B01FF2FFF001E42E2AF0042FE820006FE04E2030144E203004276409C5CBF
:209E7000E8024BA0E2AF01428F0081DEE8092000E302084476409C9D761F00301804FFEF3B
:209E80007622761F00358F009DE1A80C761A761F00331A22004076230001FF69FE84000641
:209E90003B10761F00331A2200402910FF6900063B10761F00331822FFBFF6057700762F5A
:209EA000FFFE56BF01212910FF690006E20304BDE20305BDFE04E6CF0004E6CF000DE6CF48
:209EB0000021E6CF0028E6950009E6950000E0204944E2AF0044E6940001AD14ED03E59092
:209EC0006F13E6CF0020E6CF002976409ACF5CADDC845CA476409F67E2AF0044E700002825
:209ED0007700E7200020FE84E2AF05BEE2AF04BE00063B10761F00331820FFFE2B222B24C1
:209EE0002B262B282B2A2B2C2B2E2B302B322B342B362B382B232B252B272B292B2B2B2DEC
:209EF0002B2F2B312B332B352B372B39FF690006761F00331A2000012821FFFF2910FF69BF
:209F00000006FE068F008000A8448F000D00A846020607441E44020607461E4676222B4140
:209F1000924152DD56C7000F83468A44A0A9C4840902A8441E46C2C50A41924152DD56C88E
:209F2000FFF5761A761F00331A200001FF69FE8600067622761F1748CC26FFFC5001962622
:209F3000761F01F0CC22FFCF50109622CC08FFCF501096081820FFCFCC06FFCF5010960675
:209F40001820FF3FCC06FF3F50409606761AFF6900065200A8AB8EA4EC0880A9DF8188A7CE
:209F500080857F80000EFFFE88A90FA6EC0F5300EC0D9DFF5CA876BFFFFE92859680000EA8
:209F6000FFFE92859680000CFFF8A9A40006FE02E8125800AD1456C2000AE8165800AD1415
:209F700056C40005E5A0AD14ED05E20300C4E5906F09E68800017700E68900097700E0220D
:209F800001C4FE82000628ABFFFF28AAFFFF28A9FFFF28A8FFFF0FABED04BE00D4006F0983
:209F900028ABFFFF28AAFFFFA9A488C409028AA992A676409D60000677006F00761F0207C4
:209FA000B2BDC53E59A93E67761F02080616EC041EA792A13E67761F02080614EC031EA7D3
:209FB0003E6776409F9C8BBE0006761F0208A8180006761F0207A83E00060006561F7622AA
:1C9FC000B9C028290068761A00409D9B29102920FF6900063B10FF69000600069C
:209FCE00FFF8820C000000004000126F3A83D70A401300003F80FFFE8214000000000000EA
:209FDE00FFFE8216000000000000FFFF821A00000000FFFF821B00000000FFFE81FE00001D
:129FEE009FBD0000FFFE821800009FBD00000000000012
:20B00000761BFFF0E20000BDE63006002942561676256F00761BFFF0E20000BDE6300600D9
:20B010002942561676256F00761BFFF0E20000BDE63006002942561676256F00761BFFF0A3
:20B02000E20000BDE63006002942561676256F00761BFFF0E20000BDE63006002942561662
:20B0300076256F00761BFFF0E20000BDE63006002942561676256F00761BFFF0E20000BDBB
:20B04000E63006002942561676256F00761BFFF0E20000BDE63006002942561676256F00D7
:20B05000761BFFF0E20000BDE63006002942561676256F00761BFFF0E20000BDE630060089
:20B060002942561676256F00761BFFF0E20000BDE63006002942561676256F00761BFFF053
:20B07000E20000BDE63006002942561676256F00761BFFF0E20000BDE63006002942561612
:20B0800076256F00761BFFF0E20000BDE63006002942561676256F00761BFFF0E20000BD6B
:20B09000E63006002942561676256F00761BFFF0E20000BDE63006002942561676256F0087
:20B0A000761BFFF0E20000BDE63006002942561676256F00761BFFF0E20000BDE630060039
:20B0B0002942561676256F00761BFFF0E20000BDE63006002942561676256F00761BFFF003
:20B0C000E20000BDE63006002942561676256F00761BFFF0E20000BDE630060029425616C2
:20B0D00076256F00761BFFF0E20000BDE63006002942561676256F00761BFFF0E20000BD1B
:20B0E000E63006002942561676256F00761BFFF0E20000BDE63006002942561676256F0037
:20B0F000761BFFF0E20000BDE63006002942561676256F00761BFFF0E20000BDE6300600E9
:20B100002942561676256F00761BFFF0E20000BDE63006002942561676256F00761BFFF0B2
:20B11000E20000BDE63006002942561676256F00761BFFF0E20000BDE63006002942561671
:20B1200076256F00761BFFF0E20000BDE63006002942561676256F00761BFFF0E20000BDCA
:20B13000E63006002942561676256F00761BFFF0E20000BDE63006002942561676256F00E6
:20B14000761BFFF0E20000BDE63006002942561676256F00761BFFF0E20000BDE630060098
:20B150002942561676256F00761BFFF0E20000BDE63006002942561676256F00761BFFF062
:20B16000E20000BDE63006002942561676256F00761BFFF0E20000BDE63006002942561621
:20B1700076256F00761BFFF0E20000BDE63006002942561676256F00761BFFF0E20000BD7A
:20B18000E63006002942561676256F00761BFFF0E20000BDE63006002942561676256F0096
:20B19000761BFFF0E20000BDE63006002942561676256F00761BFFF0E20000BDE630060048
:20B1A0002942561676256F00761BFFF0E20000BDE63006002942561676256F00761BFFF012
:20B1B000E20000BDE63006002942561676256F00761BFFF0E20000BDE630060029425616D1
:20B1C00076256F00761BFFF0E20000BDE63006002942561676256F00761BFFF0E20000BD2A
:20B1D000E63006002942561676256F00761BFFF0E20000BDE63006002942561676256F0046
:20B1E000761BFFF0E20000BDE63006002942561676256F00761BFFF0E20000BDE6300600F8
:20B1F0002942561676256F00761BFFF0E20000BDE63006002942561676256F00761BFFF0C2
:20B20000E20000BDE63006002942561676256F00761BFFF0E20000BDE63006002942561680
:20B2100076256F00761BFFF0E20000BDE63006002942561676256F00761BFFF0E20000BDD9
:20B22000E63006002942561676256F00761BFFF0E20000BDE63006002942561676256F00F5
:20B23000761BFFF0E20000BDE63006002942561676256F00761BFFF0E20000BDE6300600A7
:20B240002942561676256F00761BFFF0E20000BDE63006002942561676256F00761BFFF071
:20B25000E20000BDE63006002942561676256F00761BFFF0E20000BDE63006002942561630
:20B2600076256F00761BFFF0E20000BDE63006002942561676256F00761BFFF0E20000BD89
:20B27000E63006002942561676256F00761BFFF0E20000BDE63006002942561676256F00A5
:20B28000761BFFF0E20000BDE63006002942561676256F00761BFFF0E20000BDE630060057
:20B290002942561676256F00761BFFF0E20000BDE63006002942561676256F00761BFFF021
:20B2A000E20000BDE63006002942561676256F00761BFFF0E20000BDE630060029425616E0
:20B2B00076256F00761BFFF0E20000BDE63006002942561676256F00761BFFF0E20000BD39
:20B2C000E63006002942561676256F00761BFFF0E20000BDE63006002942561676256F0055
:20B2D000761BFFF0E20000BDE63006002942561676256F00761BFFF0E20000BDE630060007
:20B2E0002942561676256F00761BFFF0E20000BDE63006002942561676256F00761BFFF0D1
:20B2F000E20000BDE63006002942561676256F00761BFFF0E20000BDE63006002942561690
:20B3000076256F00761BFFF0E20000BDE63006002942561676256F00761BFFF0E20000BDE8
:20B31000E63006002942561676256F00761BFFF0E20000BDE63006002942561676256F0004
:20B32000761BFFF0E20000BDE63006002942561676256F00761BFFF0E20000BDE6300600B6
:20B330002942561676256F00761BFFF0E20000BDE63006002942561676256F00761BFFF080
:20B34000E20000BDE63006002942561676256F00761BFFF0E20000BDE6300600294256163F
:20B3500076256F00761BFFF0E20000BDE63006002942561676256F00761BFFF0E20000BD98
:20B36000E63006002942561676256F00761BFFF0E20000BDE63006002942561676256F00B4
:20B37000761BFFF0E20000BDE63006002942561676256F00761BFFF0E20000BDE630060066
:20B380002942561676256F00761BFFF0E20000BDE63006002942561676256F00761BFFF030
:20B39000E20000BDE63006002942561676256F00761BFFF0E20000BDE630060029425616EF
:20B3A00076256F00761BFFF0E20000BDE63006002942561676256F00761BFFF0E20000BD48
:20B3B000E63006002942561676256F00761BFFF0E20000BDE63006002942561676256F0064
:20B3C000761BFFF0E20000BDE63006002942561676256F00761BFFF0E20000BDE630060016
:20B3D0002942561676256F00761BFFF0E20000BDE63006002942561676256F00761BFFF0E0
:20B3E000E20000BDE63006002942561676256F00761BFFF0E20000BDE6300600294256169F
:20B3F00076256F00761BFFF0E20000BDE63006002942561676256F00761BFFF0E20000BDF8
:20B40000E63006002942561676256F00761BFFF0E20000BDE63006002942561676256F0013
:20B41000761BFFF0E20000BDE63006002942561676256F00761BFFF0E20000BDE6300600C5
:20B420002942561676256F00761BFFF0E20000BDE63006002942561676256F00761BFFF08F
:20B43000E20000BDE63006002942561676256F00761BFFF0E20000BDE6300600294256164E
:20B4400076256F00761BFFF0E20000BDE63006002942561676256F00761BFFF0E20000BDA7
:20B45000E63006002942561676256F00761BFFF0E20000BDE63006002942561676256F00C3
:20B46000761BFFF0E20000BDE63006002942561676256F00761BFFF0E20000BDE630060075
:20B470002942561676256F00761BFFF0E20000BDE63006002942561676256F00761BFFF03F
:20B48000E20000BDE63006002942561676256F00761BFFF0E20000BDE630060029425616FE
:20B4900076256F00761BFFF0E20000BDE63006002942561676256F00761BFFF0E20000BD57
:20B4A000E63006002942561676256F00761BFFF0E20000BDE63006002942561676256F0073
:20B4B000761BFFF0E20000BDE63006002942561676256F00761BFFF0E20000BDE630060025
:20B4C0002942561676256F00761BFFF0E20000BDE63006002942561676256F00761BFFF0EF
:20B4D000E20000BDE63006002942561676256F00761BFFF0E20000BDE630060029425616AE
:20B4E00076256F00761BFFF0E20000BDE63006002942561676256F00761BFFF0E20000BD07
:20B4F000E63006002942561676256F00761BFFF0E20000BDE63006002942561676256F0023
:20B50000761BFFF0E20000BDE63006002942561676256F00761BFFF0E20000BDE6300600D4
:20B510002942561676256F00761BFFF0E20000BDE63006002942561676256F00761BFFF09E
:20B52000E20000BDE63006002942561676256F00761BFFF0E20000BDE6300600294256165D
:20B5300076256F00761BFFF0E20000BDE63006002942561676256F00761BFFF0E20000BDB6
:20B54000E63006002942561676256F00761BFFF0E20000BDE63006002942561676256F00D2
:20B55000761BFFF0E20000BDE63006002942561676256F00761BFFF0E20000BDE630060084
:20B560002942561676256F00761BFFF0E20000BDE63006002942561676256F00761BFFF04E
:20B57000E20000BDE630060029425616E28000BEFFF176177602761BFFF0E20000BDE630DF
:20B5800006002942561676256F00FE0476220200761F01F01E3C761F01F11E3C761F01F2DF
:20B590001E3C761F01F31E3C761F01F41E3C761F01F51E3C8F007C00A8422B43924352C04B
:20B5A00056C700112901BE00901F5206EC065603014307428AA9C2C40A43924352C056C88B
:20B5B000FFF58F007F00A8422B439243521856C7000E2901BE005603014307428AA9C2C430
:20B5C0000A439243521856C8FFF8761AFE84FF690006FE107C4397429641901F964D924168
:20B5D000900F964E92419007964F29018F007C009241FFC4FF84560301A9560100A4A8464F
:20B5E0009242520356C600729243520F56C900036F6C924DFFC3560301A9074609061E48FB
:20B5F000924DFFC3560301A9074609201E4A924DFFC2560301A9074609281E4C7622FF692E
:20B6000002038A48FF5A5603014E16A9563BFF55FF5A92ABC0C492AAC0CC0203FF5A8A4A9A
:20B610005603014E16A9563BFF55FF5A92ABC0C492AAC0CC0203FF5A9243FFC188A98A4AF4
:20B62000A9A989A6FF5A5603014E16A9563BFF5A92AB98C492AA98CC020389438A48FF5AAA
:20B630005603014E16A9563BFF5A92AB98C492AA98CC0203FF5A8A4C5603024F16A9563B42
:20B64000FF55FF5A92ABC0C492AAC0CC020389428A4CFF5A5603024F16A9563BFF5A92AB25
:20B6500098C492AA98CC761AFE90FF690006FE187C4397429641901F0EA91E529241900F85
:20B660000EA91E542D520201563B1E5629018F007C009241FFC4FF84560301A9560100A4CE
:20B67000A846020A07461E48020C07461E4A021007461E4C021207461E4E0652FF43FF30EB
:20B68000074609021E5076228A480656FF55C0C4C1CC92425201ED1F8A48065698C499CC97
:20B690004243EF068A4E065698C499CC6F068A4E0656FF55C0C4C1CC92439005EC078A4AEC
:20B6A0000656FF55C0C4C1CC6F238A4A065698C499CC6F1E8A480656FF55C0C4C1CC4043A3
:20B6B000EF078A4A0656FF55C0C4C1CC6F058A4A065698C499CC4143EF068A4C065698C483
:20B6C00099CC6F068A4C0656FF55C0C4C1CC92439030FFC30EA91E58FF6902038A50FF5AD5
:20B6D0005603015416A9563BFF55FF5A92ABC0C492AAC0CC0658EC0CA358560301548A504D
:20B6E00016A9563BFF5A92AB98C492AA98CC761AFE98FF690006FE0A97429641901F0EA9B6
:20B6F0001E482D480201563B1E4A29018F007C009241FFC4FF84560301A9560100A4A8442B
:20B70000023C07441E4676229242EC068A46064A98C499CC6F068A46064AFF55C0C4C1CC03
:20B71000761AFE8AFF690006FE0296417622761F01E49603761AFF69FE820006FE029641BC
:20B720007622761F01E49604761AFF69FE820006FE0296417622761F01E49605761AFF6963
:20B73000FE820006FE0296417622761F01E4960C761AFF69FE820006FE0296417622761F66
:20B7400001E4960D761AFF69FE820006762228A9FFFF28A87FFF761F01F21E0C761F01F3F3
:20B7500002081E0C761F01F402201E0C3B01761F01F5FF29FFFF1E0C761AFF690006762222
:20B760008F3FFC1C761F01F0A80C28A90E0028A8FC00761F01F11E0C28A943E728A81EF074
:20B77000761F01F21E0C761F01F302081E0C761F01F402001E0C3B01761F01F5FF29FFFFA7
:20B780001E0C761AFF690006FE02761F1740060829019B0018A90700FF4796415205ED0495
:20B790007640B75F6F065206ED047640B7466F01FE820006FE069641FFC429018F007F0090
:20B7A000FF81560301A9560100A4A8449241901F2DA906C456221EA692A690019645FE8699
:20B7B0000006FE0697429641FFC429018F007F00FF81560301A9560100A4A84402011EA693
:20B7C0009241901F2DA906A6563B1E469242ED0406461EE46F0306461ED4FE860006FE081D
:20B7D00002201E42E590E20300440F42ED067640B7E8E20300446F093B01FF2FFFF01E4642
:20B7E00002001E4806481E44E2AF0044FE880006FE025CAD8F4081CC0202DC825CA4764093
:12B7F0009F493B01FF2FFF801E42E2AF0042FE820006BD
:00000001FF
