:0400000000409158D3
:20880000761BFFF0E20000BDE63006002942561676256F00761BFFF0E20000BDE630060001
:208810002942561676256F00761BFFF0E20000BDE63006002942561676256F00761BFFF0CB
:20882000E20000BDE63006002942561676256F00761BFFF0E20000BDE6300600294256168A
:2088300076256F00761BFFF0E20000BDE63006002942561676256F00761BFFF0E20000BDE3
:20884000E63006002942561676256F00761BFFF0E20000BDE63006002942561676256F00FF
:20885000761BFFF0E20000BDE63006002942561676256F00761BFFF0E20000BDE6300600B1
:208860002942561676256F00761BFFF0E20000BDE63006002942561676256F00761BFFF07B
:20887000E20000BDE63006002942561676256F00761BFFF0E20000BDE6300600294256163A
:2088800076256F00761BFFF0E20000BDE63006002942561676256F00761BFFF0E20000BD93
:20889000E63006002942561676256F00761BFFF0E20000BDE63006002942561676256F00AF
:2088A000761BFFF0E20000BDE63006002942561676256F00761BFFF0E20000BDE630060061
:2088B0002942561676256F00761BFFF0E20000BDE63006002942561676256F00761BFFF02B
:2088C000E20000BDE63006002942561676256F00761BFFF0E20000BDE630060029425616EA
:2088D00076256F00761BFFF0E20000BDE63006002942561676256F00761BFFF0E20000BD43
:2088E000E63006002942561676256F00761BFFF0E20000BDE63006002942561676256F005F
:2088F000761BFFF0E20000BDE63006002942561676256F00761BFFF0E20000BDE630060011
:208900002942561676256F00761BFFF0E20000BDE63006002942561676256F00761BFFF0DA
:20891000E20000BDE63006002942561676256F00761BFFF0E20000BDE63006002942561699
:2089200076256F00761BFFF0E20000BDE63006002942561676256F00761BFFF0E20000BDF2
:20893000E63006002942561676256F00761BFFF0E20000BDE63006002942561676256F000E
:20894000761BFFF0E20000BDE63006002942561676256F00761BFFF0E20000BDE6300600C0
:208950002942561676256F00761BFFF0E20000BDE63006002942561676256F00761BFFF08A
:20896000E20000BDE63006002942561676256F00761BFFF0E20000BDE63006002942561649
:2089700076256F00761BFFF0E20000BDE63006002942561676256F00761BFFF0E20000BDA2
:20898000E63006002942561676256F00761BFFF0E20000BDE63006002942561676256F00BE
:20899000761BFFF0E20000BDE63006002942561676256F00761BFFF0E20000BDE630060070
:2089A0002942561676256F00761BFFF0E20000BDE63006002942561676256F00761BFFF03A
:2089B000E20000BDE63006002942561676256F00761BFFF0E20000BDE630060029425616F9
:2089C00076256F00761BFFF0E20000BDE63006002942561676256F00761BFFF0E20000BD52
:2089D000E63006002942561676256F00761BFFF0E20000BDE63006002942561676256F006E
:2089E000761BFFF0E20000BDE63006002942561676256F00761BFFF0E20000BDE630060020
:2089F0002942561676256F00761BFFF0E20000BDE63006002942561676256F00761BFFF0EA
:208A0000E20000BDE63006002942561676256F00761BFFF0E20000BDE630060029425616A8
:208A100076256F00761BFFF0E20000BDE63006002942561676256F00761BFFF0E20000BD01
:208A2000E63006002942561676256F00761BFFF0E20000BDE63006002942561676256F001D
:208A3000761BFFF0E20000BDE63006002942561676256F00761BFFF0E20000BDE6300600CF
:208A40002942561676256F00761BFFF0E20000BDE63006002942561676256F00761BFFF099
:208A5000E20000BDE63006002942561676256F00761BFFF0E20000BDE63006002942561658
:208A600076256F00761BFFF0E20000BDE63006002942561676256F00761BFFF0E20000BDB1
:208A7000E63006002942561676256F00761BFFF0E20000BDE63006002942561676256F00CD
:208A8000761BFFF0E20000BDE63006002942561676256F00761BFFF0E20000BDE63006007F
:208A90002942561676256F00761BFFF0E20000BDE63006002942561676256F00761BFFF049
:208AA000E20000BDE63006002942561676256F00761BFFF0E20000BDE63006002942561608
:208AB00076256F00761BFFF0E20000BDE63006002942561676256F00761BFFF0E20000BD61
:208AC000E63006002942561676256F00761BFFF0E20000BDE63006002942561676256F007D
:208AD000761BFFF0E20000BDE63006002942561676256F00761BFFF0E20000BDE63006002F
:208AE0002942561676256F00761BFFF0E20000BDE63006002942561676256F00761BFFF0F9
:208AF000E20000BDE63006002942561676256F00761BFFF0E20000BDE630060029425616B8
:208B000076256F00761BFFF0E20000BDE63006002942561676256F00761BFFF0E20000BD10
:208B1000E63006002942561676256F00761BFFF0E20000BDE63006002942561676256F002C
:208B2000761BFFF0E20000BDE63006002942561676256F00761BFFF0E20000BDE6300600DE
:208B30002942561676256F00761BFFF0E20000BDE63006002942561676256F00761BFFF0A8
:208B4000E20000BDE63006002942561676256F00761BFFF0E20000BDE63006002942561667
:208B500076256F00761BFFF0E20000BDE63006002942561676256F00761BFFF0E20000BDC0
:208B6000E63006002942561676256F00761BFFF0E20000BDE63006002942561676256F00DC
:208B7000761BFFF0E20000BDE63006002942561676256F00761BFFF0E20000BDE63006008E
:208B800029425616E28000BEFFF176177602761BFFF0E20000BDE63006002942561676253C
:208B90006F00761BFFF0E20000BDE63006002942561676256F0076408BBF7622761F01C04C
:208BA0001A1C000876FD7C80FF693E67761F01C0181CFFF7761AFF6976408CD19A129B0227
:208BB00076408BC776408C4A00067622761F01C056BF552556BFAA25761AFF690006762214
:208BC000761F01C056BF6829761AFF690006FE0297429641761F01C04311EF0676221A1189
:208BD0000010761A7625CC110180FFC6EC0576221811FE7F761A0E411EA69221901F80A9CA
:208BE00006A60FA7EC1676221A1100409241CD21FFE0901FCAA89621761AFF6976408BBF9E
:208BF000921190015201EDFD76221811FFBF761A92425201EC035202ED0976229003CD117C
:208C0000FE7FFF86CAA89611761A92425203ED127622CC11FE7F1AA9010096118F00038210
:208C1000FF69A8A976409188761F01C01A110180761AFE82FF690006FE047C4397429641CB
:208C20007622761F00224E01EF031801BFFF761F01C01A3000049003CD30FFFCCAA8963066
:208C30009242900FCD32FFF0CAA89632FF6976408BBF923490015201EDFD761F0022924301
:208C4000CD01BFFF9001FF8DCAA89601761AFF69FE8400067622761F01C056BF021BCC10E6
:208C5000FFFC500296101A1D00011A1D00021A1D00041A1D00081A1D00101A1D00201A1D51
:208C600000401A1D00801A1C00011A1C00041A1D40001A1D80001A1D01001A1D02001A1DB6
:208C700004001A1901001A1902001A1904001A1908001A1C00081A2000011A2000021A2016
:208C800000041A2001001A2002001A2004001A2008001A2040001A2080001A1C00101A1C29
:208C900001001A1C02001A1C04001A1C08001A1C10001A1C40001A1C0004761AFF6900061F
:208CA000FE027622761F002B2820FFFF2821FFFF2822FFFF2823FFFF2824FFFF2825FFFFA9
:208CB0002826FFFF2827FFFF761A761FFDFF9238964192399641923A9641923B9641923C92
:208CC0009641923D9641923E9641923F9641761F002B402FEE039A016F029A00FE82FF691A
:208CD00000067622761F01C01812FEFF1812FFFE1A1220001A1240001A120400761AFF6962
:208CE00000067622761F01C01812FBFF1A1200021A1220001A1240001A1200011812FFFB25
:208CF0001812FEFF761AFF6900067622761F01C01812BFFF8F00464EFF69A8A976409188BE
:208D0000761F01C01A1220001812FFFD1A1200011812FFFB1A1204001812FEFF761AFF69EB
:208D100000067622761F01C01A1000401A1240001812DFFF1812FFFD1A1200011812FFFBFA
:208D20001A1204001812FEFF761AFF690006FE387D447C43974296417622761F01BE180D67
:208D3000BFFFCC09CFFF1AA910009609180D7FFFCC093FFF1AA940009609761A7622761F3B
:208D40000180062C1E4C1A4C0008064C1E2C062A1E4E1A4E0008064E1E2A761A02001E0094
:208D5000762219011E2406141E641A64100006641E14761A06181E60CC600010FFC35201CC
:208D6000EDFA762206161E62924193619CFF3CA8976192439CFFCD62FFF89007CAA8966203
:208D700092429CFFCD62FF87900FFF82CAA89662927C9CFF9001CD62FF7FFF86CAA896625F
:208D8000927B9CFF9003CD62FCFFFF87CAA8966206621E1606141E641864EFFF06641E1440
:208D9000761A06181E604460EEFD762206141E641864FFBF1A6420001A64040006641E14DE
:208DA000761A762206241E5402001E545CADFF69DC9402025DA48F006024764090F5761AB7
:208DB0007622761F018006261E5202001E525CADFF69DC9202025DA48F006026764090F5B3
:208DC000761A7622761F018006201E581858FFFB1858FFFE1858FFFD06581E20761AFF69E2
:208DD000FEB80006AABD5AADDA85FE3E7D427C411E4402011E4629018F00610056030342C1
:208DE000560100A4A87E2D420646563B1E46FF551E4818D4FFEF761F018006001E7C020056
:208DF0001E0092C25201ED058A7E06441EC46F0B0201077E8AA9CC4407FFFF81CDC4E00339
:208E0000CAA896C48A7E18CCBFFF8A7E18CCDFFF0201077E8AA9CCC47FFF88A956030FC2EE
:208E1000CAA696C406021E7A9241ED050646987A99796F040648C07AC179067A1E02064682
:208E2000987C997B067C1E00FEBE86BE0006761F01A80604761F03841E2E761F01841E0C70
:208E3000CC0AFFF05004960A761F018002021E04761ACC080002FFC05201EDFC1A080002A8
:208E4000FF690006FE02761F03848A0002001EC48F00E12EF6012B84768001C7D501D4016D
:208E50002B4106A676408DD2761F01A02805FA00CC00C00050309600180300002B0418076D
:208E6000FFA028097D00280A7D0056BF920B280C0906180DFF3F180EFFF0180F7FC02B10E8
:208E70002B11921990F01AA910019619CC1ACCFC1AA91101961A181EF80076222B12CC14E2
:208E8000F0001AA90FFF96141815FF81CC31FCF0500496311832FCF092309A001AA9101041
:208E900096301813F000CC33FFC0501096332B352B371834FFFE1820FF5F761AFF69FE82E1
:208EA000000600068F000C00761F0384A8120200761F003019011E022B062B071A040010A3
:208EB0001A0400208F000C08761F0384A8028F000C10A80A761F0030020019011E0A761F00
:208EC0000030020019011E12761F00302B0E2B0F761F00302B162B17761F00301A0C00109B
:208ED000761F00301A140010761F00301A0C0020761F00301A1400200006FE08E203014629
:208EE000E2030044A84206441EE48A4206461EF4E2AF0044E2AF0146E70000087700E68868
:208EF00000007700E20300488A428AC4064819011ED48A428AC42BF48A428AC42BFC8A4204
:208F00008AC41AE400108A428AC41AE400208A428AC418E4FBFF8A428AC418E4F7FF8A42D5
:208F10008AC41AE440008A4202001ED4FE880006761F038492370A375200EC0556BF0136B4
:208F20000B376F0A7640906176408E2776409069761F03840B370006FE0656BF0141E8010D
:208F3000FC00E2030044E80215A0E20300467640916776408F6976409169761F03848A0080
:208F400002001EC476408E42E2AF0044E2AF01467640903A761F03848A00BE0006C4ED025D
:208F5000BE017E4176409061764091609241EC0B761F03848A00BE0006C4ED02BE017E41D0
:208F60009241EDF776408EA1764091649A00FE860006FE0276408BBF7622761F01C01A1C62
:208F7000000876FD7C80FF693E67761F01C0181CFFF7761AFF6976408CD19A099B037640DB
:208F80008BC776408C4A7622761F01C02B1B761A3B1076260000762F0000FF69764090A550
:208F9000764090CD56BF02419A05D403D5019B0556BF014276408D2776408EA27640907705
:208FA00076409081764091457622761F01BE02001E021E041E121E14761AFE82FF6900064E
:208FB00028AD0002FF69561F5616561AE61002002940761F00002902761B762228A9916AFB
:208FC00028A800000901611B76C0916A29046F0F9B0024A9DF016C04290424A8DF011EA60A
:208FD000F7A1248606A781A109011EA724A96303FF5C3B0459A9DF010009FFEC761A28A99D
:208FE000FFFF28A8FFFF0901610E76FFFFFF6F06DF01C3BD1EA73E67C5BE24A9DF0124A87E
:208FF000FF5860F7764091137640912E761BFFF00005ABBDA8BDA0BDC2BDC3BDE20000BD97
:20900000E20300BDE20301BDE20302BDE20303BDE6300600FE02FF6929425616761F00339F
:20901000922296411822FFBFF6057700762FFFFE56BF0121762300012910FF6976408F18DA
:209020003B109241761F00339622FE82E2AF03BEE2AF02BEE2AF01BEE2AF00BEE28000BEB0
:20903000C5BEC4BE83BE8ABE87BE00033B30FFF176177602FE04E2030144E20300427640E1
:209040008EA2E8024BA0E2AF01428F00E112E8092000E302084476408EDD761F0030180471
:20905000FFEF7622761F00358F008FF6A80C761A761F00331A22004076230001FF69FE8490
:2090600000063B10761F00331A2200402910FF6900063B10761F00331822FFBFF605770037
:20907000762FFFFE56BF01212910FF6900067622761F01BE180CFFDF1A060C00761AFF694E
:209080000006761F01A82B162818FFFF1814FEFF1815FFEF02001E02CC15FF3F504096154D
:209090001815FDFF1815FFFE1814C1FF1815FFF91814FFFE1814FFFD56BFFF181A150008A8
:2090A0001A1500101A14010000063B10761F00331820FFFE2B222B242B262B282B2A2B2C08
:2090B0002B2E2B302B322B342B362B382B232B252B272B292B2B2B2D2B2F2B312B332B3506
:2090C0002B372B39FF690006761F00331A2000012821FFFF2910FF690006FE068F00E000F8
:2090D000A8448F000D00A846020607441E44020607461E4676222B419241527D56C3000FCE
:2090E00083468A44A0A9C4840902A8441E46C2C50A419241527D56C4FFF5761A761F003313
:2090F0001A200001FF69FE8600065200A8AB8EA4EC0880A9DF8188A780857F80000EFFFEA1
:2091000088A90FA6EC0F5300EC0D9DFF5CA876BFFFFE92859680000EFFFE92859680000CDF
:20911000FFF8A9A4000628ABFFFF28AAFFFF28A9FFFF28A8FFFF0FABED04BE00D4006F0902
:2091200028ABFFFF28AAFFFFA9A488C409028AA992A676408F2C000677006F00761F038406
:20913000B2BDC53259A93E67761F0384062CEC041EA792A13E67761F0384062AEC031EA737
:209140003E677640912C8BBE00067622761F01BECC06FFFC50019606761AFF690006761F6F
:209150000384A8340006761F0384A83200060006561F7622B9C028290068761A00408FB046
:1491600029102920FF6900063B10FF69000600060006000640
:20916A00FFFEE12A000000000000FFFEE12C000000000000FFFFE13600000000FFFFE137A8
:1C917A0000000000FFFEE132000091570000FFFEE13400009157000000000000E7
:08918800190156C3FFFF0006A8
:00000001FF
