:020000040008F2
:0400000000481C8F09
:20000400761BFFF0E20000BDE63006002942561676256F00761BFFF0E20000BDE630060085
:200014002942561676256F00761BFFF0E20000BDE63006002942561676256F00761BFFF04F
:20002400E20000BDE63006002942561676256F00761BFFF0E20000BDE6300600294256160E
:2000340076256F00761BFFF0E20000BDE63006002942561676256F00761BFFF0E20000BD67
:20004400E63006002942561676256F00761BFFF0E20000BDE63006002942561676256F0083
:20005400761BFFF0E20000BDE63006002942561676256F00761BFFF0E20000BDE630060035
:200064002942561676256F00761BFFF0E20000BDE63006002942561676256F00761BFFF0FF
:20007400E20000BDE63006002942561676256F00761BFFF0E20000BDE630060029425616BE
:2000840076256F00761BFFF0E20000BDE63006002942561676256F00761BFFF0E20000BD17
:20009400E63006002942561676256F00761BFFF0E20000BDE63006002942561676256F0033
:2000A400761BFFF0E20000BDE63006002942561676256F00761BFFF0E20000BDE6300600E5
:2000B4002942561676256F00761BFFF0E20000BDE63006002942561676256F00761BFFF0AF
:2000C400E20000BDE63006002942561676256F00761BFFF0E20000BDE6300600294256166E
:2000D40076256F00761BFFF0E20000BDE63006002942561676256F00761BFFF0E20000BDC7
:2000E400E63006002942561676256F00761BFFF0E20000BDE63006002942561676256F00E3
:2000F400761BFFF0E20000BDE63006002942561676256F00761BFFF0E20000BDE630060095
:200104002942561676256F00761BFFF0E20000BDE63006002942561676256F00761BFFF05E
:20011400E20000BDE63006002942561676256F00761BFFF0E20000BDE6300600294256161D
:2001240076256F00761BFFF0E20000BDE63006002942561676256F00761BFFF0E20000BD76
:20013400E63006002942561676256F00761BFFF0E20000BDE63006002942561676256F0092
:20014400761BFFF0E20000BDE63006002942561676256F00761BFFF0E20000BDE630060044
:200154002942561676256F00761BFFF0E20000BDE63006002942561676256F00761BFFF00E
:20016400E20000BDE63006002942561676256F00761BFFF0E20000BDE630060029425616CD
:2001740076256F00761BFFF0E20000BDE63006002942561676256F00761BFFF0E20000BD26
:20018400E63006002942561676256F00761BFFF0E20000BDE63006002942561676256F0042
:20019400761BFFF0E20000BDE63006002942561676256F00761BFFF0E20000BDE6300600F4
:2001A4002942561676256F00761BFFF0E20000BDE63006002942561676256F00761BFFF0BE
:2001B400E20000BDE63006002942561676256F00761BFFF0E20000BDE6300600294256167D
:2001C40076256F00761BFFF0E20000BDE63006002942561676256F00761BFFF0E20000BDD6
:2001D400E63006002942561676256F00761BFFF0E20000BDE63006002942561676256F00F2
:2001E400761BFFF0E20000BDE63006002942561676256F00761BFFF0E20000BDE6300600A4
:2001F4002942561676256F00761BFFF0E20000BDE63006002942561676256F00761BFFF06E
:20020400E20000BDE63006002942561676256F00761BFFF0E20000BDE6300600294256162C
:2002140076256F00761BFFF0E20000BDE63006002942561676256F00761BFFF0E20000BD85
:20022400E63006002942561676256F00761BFFF0E20000BDE63006002942561676256F00A1
:20023400761BFFF0E20000BDE63006002942561676256F00761BFFF0E20000BDE630060053
:200244002942561676256F00761BFFF0E20000BDE63006002942561676256F00761BFFF01D
:20025400E20000BDE63006002942561676256F00761BFFF0E20000BDE630060029425616DC
:2002640076256F00761BFFF0E20000BDE63006002942561676256F00761BFFF0E20000BD35
:20027400E63006002942561676256F00761BFFF0E20000BDE63006002942561676256F0051
:20028400761BFFF0E20000BDE63006002942561676256F00761BFFF0E20000BDE630060003
:200294002942561676256F00761BFFF0E20000BDE63006002942561676256F00761BFFF0CD
:2002A400E20000BDE63006002942561676256F00761BFFF0E20000BDE6300600294256168C
:2002B40076256F00761BFFF0E20000BDE63006002942561676256F00761BFFF0E20000BDE5
:2002C400E63006002942561676256F00761BFFF0E20000BDE63006002942561676256F0001
:2002D400761BFFF0E20000BDE63006002942561676256F00761BFFF0E20000BDE6300600B3
:2002E4002942561676256F00761BFFF0E20000BDE63006002942561676256F00761BFFF07D
:2002F400E20000BDE63006002942561676256F00761BFFF0E20000BDE6300600294256163C
:2003040076256F00761BFFF0E20000BDE63006002942561676256F00761BFFF0E20000BD94
:20031400E63006002942561676256F00761BFFF0E20000BDE63006002942561676256F00B0
:20032400761BFFF0E20000BDE63006002942561676256F00761BFFF0E20000BDE630060062
:200334002942561676256F00761BFFF0E20000BDE63006002942561676256F00761BFFF02C
:20034400E20000BDE63006002942561676256F00761BFFF0E20000BDE630060029425616EB
:2003540076256F00761BFFF0E20000BDE63006002942561676256F00761BFFF0E20000BD44
:20036400E63006002942561676256F00761BFFF0E20000BDE63006002942561676256F0060
:20037400761BFFF0E20000BDE63006002942561676256F00761BFFF0E20000BDE630060012
:200384002942561676256F00761BFFF0E20000BDE63006002942561676256F00761BFFF0DC
:20039400E20000BDE63006002942561676256F00761BFFF0E20000BDE6300600294256169B
:2003A40076256F00761BFFF0E20000BDE63006002942561676256F00761BFFF0E20000BDF4
:2003B400E63006002942561676256F00761BFFF0E20000BDE63006002942561676256F0010
:2003C400761BFFF0E20000BDE63006002942561676256F00761BFFF0E20000BDE6300600C2
:2003D4002942561676256F00761BFFF0E20000BDE63006002942561676256F00761BFFF08C
:2003E400E20000BDE63006002942561676256F00761BFFF0E20000BDE6300600294256164B
:2003F40076256F00761BFFF0E20000BDE63006002942561676256F00761BFFF0E20000BDA4
:20040400E63006002942561676256F00761BFFF0E20000BDE63006002942561676256F00BF
:20041400761BFFF0E20000BDE63006002942561676256F00761BFFF0E20000BDE630060071
:200424002942561676256F00761BFFF0E20000BDE63006002942561676256F00761BFFF03B
:20043400E20000BDE63006002942561676256F00761BFFF0E20000BDE630060029425616FA
:2004440076256F00761BFFF0E20000BDE63006002942561676256F00761BFFF0E20000BD53
:20045400E63006002942561676256F00761BFFF0E20000BDE63006002942561676256F006F
:20046400761BFFF0E20000BDE63006002942561676256F00761BFFF0E20000BDE630060021
:200474002942561676256F00761BFFF0E20000BDE63006002942561676256F00761BFFF0EB
:20048400E20000BDE63006002942561676256F00761BFFF0E20000BDE630060029425616AA
:2004940076256F00761BFFF0E20000BDE63006002942561676256F00761BFFF0E20000BD03
:2004A400E63006002942561676256F00761BFFF0E20000BDE63006002942561676256F001F
:2004B400761BFFF0E20000BDE63006002942561676256F00761BFFF0E20000BDE6300600D1
:2004C4002942561676256F00761BFFF0E20000BDE63006002942561676256F00761BFFF09B
:2004D400E20000BDE63006002942561676256F00761BFFF0E20000BDE6300600294256165A
:2004E40076256F00761BFFF0E20000BDE63006002942561676256F00761BFFF0E20000BDB3
:2004F400E63006002942561676256F00761BFFF0E20000BDE63006002942561676256F00CF
:20050400761BFFF0E20000BDE63006002942561676256F00761BFFF0E20000BDE630060080
:200514002942561676256F00761BFFF0E20000BDE63006002942561676256F00761BFFF04A
:20052400E20000BDE63006002942561676256F00761BFFF0E20000BDE63006002942561609
:2005340076256F00761BFFF0E20000BDE63006002942561676256F00761BFFF0E20000BD62
:20054400E63006002942561676256F00761BFFF0E20000BDE63006002942561676256F007E
:20055400761BFFF0E20000BDE63006002942561676256F00761BFFF0E20000BDE630060030
:200564002942561676256F00761BFFF0E20000BDE63006002942561676256F00761BFFF0FA
:20057400E20000BDE630060029425616E28000BEFFF176177602761BFFF0E20000BDE6308B
:2005840006002942561676256F00FE067C431E426F2B28A909059B641E466F3228A90906F0
:200594009B651E466F2D020019011E466F29924361F1520161F46FF828A909079B661E46B3
:2005A4006F1F28A909089B671E466F1A020019011E466F16924361F1520161F46FF802009B
:2005B40019011E466F0DC4428F048000A8A90FA661DF8F04A000A8A90FA661ED6FF1FE8663
:2005C4000006FE089645A044A84206441E482B4692455446650F3B018348C4A585460742D8
:2005D4008AA9DE01C24892C43CC50A469245544662F4FE880006FE089645A044A8420644F8
:2005E4001E482B469245544665103B018A48A8A909011E48C6C488A9854607428AA97EC427
:2005F4000A469245544662F3FE880006FE041E428A4256BF01C48A4228C480008F00010075
:20060400A8A907428AA94FC46DFA8F000102A8A907428AA956BFB0C48F000108A8A9074275
:200614008AA92BC48F00010AA8A907428AA92BC48F00010CA8A907428AA92BC48F00010E58
:20062400A8A907428AA92BC48F000122A8A907428AA956BFB0C48F000128A8A907428AA96D
:200634002BC48F00012AA8A907428AA92BC48F00012CA8A907428AA92BC48F00012EA8A9BA
:2006440007428AA92BC456BF01439243522062238F000100A8A907428AA94FC46DFA8F00A0
:2006540001008843A8A907428AA97EC48F000120A8A907428AA94FC46DFA8F0001205D4364
:20066400A8A907428AA9DD017DC4084300029243522065DF8F000102A8A907428AA956BF3E
:200674000CC48F000122A8A907428AA956BF0CC456BF01439243522062238F000100A8A92C
:2006840007428AA94FC46DFA8F0001008843A8A907428AA97EC48F000120A8A907428AA979
:200694004FC46DFA8F0001205D43A8A907428AA9DD017DC4084300029243522065DF8A42EC
:2006A40006E4FE840006FE021E428A428342CCC4FFFE96C5FE820006FE021E428A4292C4E3
:2006B400500196C4FE820006FE047C431E4276226F14761F17489243CD0AFFF39003FF8114
:2006C400CAA8960A761F17489243CD0AFFCF9003FF83CAA8960A6F0CC4428F048000A8A98A
:2006D4000FA661E88F04A000A8A90FA661EC761AFE84FF690006FE06A8441E42020C07425B
:2006E4008AA906C41E4629018F007000A8A9CE468A44CF45FF4B9C0196CC8F000F00A8A9ED
:2006F400CE468A44CF45FF479C0196C406469B008A4490C0FF459C0196D48F0F0000A8A974
:20070400CE46CF458A44FF4993A99246903FCBA99D0197DCFE860006FE0C1E425CADA3503F
:200714000200DC92F61F561700C4A9440200A350F61F56170044A9A90F52690402010744F9
:200724001E448F003400A8A90F44685B020D1E4602050F466650A3440200F61F56170046F3
:20073400A9488746564400480F44603F06468F081E981905560100A40EC41E4A8A4292C405
:20074400964B504196C4064819018F0F0000FF39FF5AA8A988A992ABCEA627A992A893AAB8
:20075400CFA92FA8064819019B00903FCB49CA4ACBAACAAB1E4A884A020C07428AA97EC44C
:20076400064A0EA81EA6020E07428AA97EC48A42924B96C4874656650048A9A60200A350C6
:20077400F61F561700A66F0E02015641004602050F4669B2020107441E44A8A90F4467A707
:200784003100FE8CA9A90006FE08A8441E428A4292C49647504196C48A4492CC9CFF5603E6
:200794000CA918A970000EA91E4692C49CFF560308A918A90F000EA99846994592D49CFF05
:2007A400560306A990C00EA99846994592DC9CFF903F0EA99846994592DC9CFF56030AA90A
:2007B40088A98F0F0000A8A989A6984692A898458846020C07428AA97EC406460EA81EA681
:2007C400020E07428AA97EC41847FFBF40476C031847FFFE8A42924796C4FE880006FE0847
:2007D4007D43A8461E425C43764805891E488A46764812FB064876481327FE880006FE0635
:2007E4007C431E42764805891E46764813100646764813BAFE860006FE021E428A428342F3
:2007F4009246CAC496C58A4283420646CBD497D5FE820006FE021E428A4283429246FF5E90
:20080400CEC496C58A4283420646FF5FCFD497D5FE820006FE067C431E426F10021007421A
:200814008AA906C41E466F0F02B007428AA906C41E466F0902001E466F06924361F05201BD
:2008240061F46FF9FE860006FE021E428F008000A8A90F4660048A4206E46F1E8F00010021
:20083400A8A907428AA94FC46DFA8F000102A8A907428AA956BF08C48F000100A8A90742F3
:200844008AA9924690FF96C48F000100A8A907428AA94FC46DFAFE820006FE047C431E4222
:200854008A4292C49644924361041844FFDF6F031A440020924496C4FE840006FE021E420C
:200864008A4245C46C039A006F029A01FE820006FE067C431E426F1A8A4206E41E466F1FB0
:20087400028807428AA906C41E466F19029C07428AA906C41E466F1302C407428AA906C4D2
:200884001E466F0D02001E466F0A924361E6520161E8520261EC520361F06FF5FE860006A8
:20089400FE08A046A8441E42020807428AA992C496478A44CC477F00FFC70EA91EC48A46C4
:2008A400924790FF0EA91EC44F476C039A016F029A00FE880006FE107D45A8441E422B4F66
:2008B4008F000100A8A907428AA94FC46DFA83448F0007FFA8A90FC568048A4442E46C04FC
:2008C40056BF01506F022B509A009B931E4802001E4C1E4E1E4A6F231A4E0100FF2F4000EB
:2008D4001E4C56BF014F6F2C1A4E01006F29FF2F40001E4C8F001000A84E28A9FFFF28A88D
:2008E4001FFF1E4A1A4700406F1BFF2F40001E4C8F001200A84E56BF014F6F1292455202C3
:2008F40062095202610D520061D8520161DEFFEF00A2520361DD520461E9FFEF009C8A447F
:2009040043E46C0F9250610606D418A81FFF1E4A6F0806D428AC0012563B56081FFC1E4A1F
:20091400BE2806E49B0090280FA660031A498000BE1806E49B0090180FA660031A494000E7
:2009240006E49B009038FF5861051A4E10001A4700401A4700209250610A06C418A81FFF1A
:20093400CA4CCB4B1AA8C0001E4C6F0C06C428AC0012563B56081FFCCB4BCA4C1AA88000E8
:200944001E4C06F49B00900F984E994D49E46D031A4E008040E46C031A4E080041E46C030D
:200954001A4E0400924F610E02088F40011007448AA9C444A0A907428AC483A992F6764805
:2009640005C506488F0001020EA81EA6A8A907428AA97EC4884A8F000104A8A907428AA90D
:200974007EC4064A8F0001060EA81EA6A8A907428AA97EC4884C8F000108A8A907428AA979
:200984007EC4064C8F00010A0EA81EA6A8A907428AA97EC48F00010C884EA8A907428AA95D
:200994007EC48F000100A8A907428AA9925490FF96C4FE900006FE0E7D45A8441E429A008D
:2009A4009B731E48924561031A47000C06488F0001220EA81EA6A8A907428AA97EC48F00FF
:2009B4000120A8A907428AA9925290FF96C48F000120A8A907428AA94FC46DFA8F000124BD
:2009C400A8A907428AA906C41E4A8F000128A8A907428AA906C41E4C8F00012CA8A9074205
:2009D4008AA906C41E4E8A4402001EE4484E6D034D4B6D05484E6C064D4B6D048A441AE4DB
:2009E40000404E4B6C0A8A44064C18A81FFF1EC48A441AE400046F09064C8A4428AC001276
:2009F40056081FFC56221EC44E4E6C048A441AE401004C4E6C344E4B6C128A44064A18A808
:200A04001FFF1ED48A4428A9FFFF28A81FFF0FD4600346E46D181AE400086F15064A8A449A
:200A140028AC001218A81FFF56221ED483448F0007FFA8A90FD560048A4446E46D048A4468
:200A24001AE40008064A5608800061048A441AE400284E496C048A441AE400184B4E6C0431
:200A34008A441AE400014A4E6C048A441AE400024F4E6C308A44064E9B00900F1EF48A448A
:200A440046E46D0E02088F40013007448AA9C444A0A907428AC483A992F6764805DF8F0098
:200A54000122A8A907428AA956BF04C48F000120A8A907428AA9925290FF96C48F000120BB
:200A6400A8A907428AA94FC46DFA8A441AE400806F048A4402001EF4FE8E0006FE021E4298
:200A74008F000100A8A907428AA94FC46DFA8F000102A8A907428AA956BFA0C48F0001081B
:200A8400A8A907428AA92BC48F00010AA8A907428AA92BC48F000100A8A907428AA992460B
:200A940090FF96C4FE820006FE021E42025007428AA9924698C4FE820006FE021E42025039
:200AA40007428AA99246FF5EC0C4FE820006FE021E428846025807428AA97EC4FE820006AB
:200AB400FE021E42025407428AA9064689C461039A016F029A00FE820006FE087D431E469D
:200AC400A842761F14000608CE46CF45FF58610456BF01476F0C924352016004061696C4B3
:200AD4006F055202600306161EC42B479247FE880006FE047C431E42761F1400064ACA42DC
:200AE400CB41CE08CF09FF58610456BF01446F1592435201600402071E106F0552026003B0
:200AF40002081E1006481E12A34A0604CA42CB41CAABCBAA1E042B449244FE840006FE0442
:200B04007C431E42761F1400064CCA42CB41CE08CF09FF58610456BF01446F1C9243520128
:200B1400600902011E1006481E12064A91001E146F095202600702021E1006481E12064A63
:200B24001E140604A34CCA42CB41CAABCBAA1E042B449244FE840006FE047C431E42761FDF
:200B34001400064CCA42CB41CE08CF09FF58610456BF01446F1C92435201600902091E100A
:200B440006481E12064A91001E146F0952026007020A1E1006481E12064A1E140604A34C9A
:200B5400CA42CB41CAABCBAA1E042B449244FE840006FE047C431E42761F1400064CCA4268
:200B6400CB41CE08CF09FF58610456BF01446F1C92435201600902031E1006481E12064A84
:200B740091001E146F095202600702041E1006481E12064A1E140604A34CCA42CB41CAABB1
:200B8400CBAA1E042B449244FE840006FE047C431E42761F1400064CCA42CB41CE08CF090B
:200B9400FF58610456BF01446F1C924352016009020B1E1006481E12064A91001E146F09CB
:200BA40052026007020C1E1006481E12064A1E140604A34CCA42CB41CAABCBAA1E042B44AE
:200BB4009244FE840006FE047C431E42761F1400064CCA42CB41CE08CF09FF58610456BF10
:200BC40001446F1792435201600402051E106F055202600302061E1006481E12064A1E1424
:200BD400A34C0604CA42CB41CAABCBAA1E042B449244FE840006FE047C431E42761F14004D
:200BE400064CCA42CB41CE08CF09FF58610456BF01446F17924352016004020D1E106F0500
:200BF40052026003020E1E1006481E12064A1E14A34C0604CA42CB41CAABCBAA1E042B4460
:200C04009244FE840006FE041E42761F1400064CCA42CB41CE08CF09FF58610456BF01433A
:200C14006F0F02121E1006481E12064A1E14A34C0604CA42CB41CAABCBAA1E042B439243A0
:200C2400FE840006FE0C7C491E488F05F444A84C9249600D064C1E42D40206501E44065253
:200C34001E46064876480B30964A6F0E5201600C064C1E42D40206501E4406521E4606488F
:200C440076480B8A964A924AFE8C0006FE061E42761F14000602CE42CF41FF5861FA020701
:200C54000F18600D061A1E468A460EC41E1E064ACA00CA42CB01CB411E006F1302080F18BB
:200C6400600D061A1E448A4406C41E1E064ACA00CA42CB01CB411E006F04064298009901A4
:200C7400FE860006FE061E42761F14000602CE42CF41FF5861FA02010F186010061A1E44D3
:200C84008A44061C98C48A440EC41E1E064ACA00CA42CB01CB411E006F1702020F186011EA
:200C9400061A1E468A46061C98C499CC8A4606C41E1E064ACA00CA42CB01CB411E006F04A4
:200CA400064298009901FE860006FE061E42761F14000602CE42CF41FF5861FA76220209A2
:200CB4000F186010061A1E448A44061C98C48A440EC41E1E064ACA00CA42CB01CB411E00C3
:200CC4006F17020A0F186011061A1E468A46061C98C499CC8A4606C41E1E064ACA00CA42B3
:200CD400CB01CB411E006F04064298009901761AFE86FF690006FE061E42761F1400060286
:200CE400CE42CF41FF5861FA02030F186011061A1E448A44061CFF5EC0C48A440EC41E1E52
:200CF400064ACA00CA42CB01CB411E006F1802040F186012061A1E468A46061CFF55C0C450
:200D0400C1CC8A4606C41E1E064ACA00CA42CB01CB411E006F04064298009901FE860006D9
:200D1400FE061E42761F14000602CE42CF41FF5861FA7622020B0F186011061A1E448A444B
:200D2400061CFF5EC0C48A440EC41E1E064ACA00CA42CB01CB411E006F18020C0F18601286
:200D3400061A1E468A46061CFF55C0C4C1CC8A4606C41E1E064ACA00CA42CB01CB411E00D2
:200D44006F04064298009901761AFE86FF690006FE061E42761F14000602CE42CF41FF5894
:200D540061FA02050F186010061A1E468A46061C96C48A460EC41E1E064ACA00CA42CB01E6
:200D6400CB411E006F1602060F186010061A1E448A44061C1EC48A4406C41E1E064ACA00DF
:200D7400CA42CB01CB411E006F04064298009901FE860006FE061E42761F14000602CE42C1
:200D8400CF41FF5861FA7622020D0F186010061A1E468A46061C96C48A460EC41E1E064A51
:200D9400CA00CA42CB01CB411E006F16020E0F186010061A1E448A44061C1EC48A4406C45B
:200DA4001E1E064ACA00CA42CB01CB411E006F04064298009901761AFE86FF690006FE0466
:200DB4001E42761F14000602CE42CF41FF5861FA02120F186010061A1E44C544061C3E673F
:200DC400761F14001E1E0648CA00CA42CB01CB411E006F04064298009901FE840006770024
:200DD4007700770077007700FF69000676480ECE7622FF69764812A0761F174C1A3C00015C
:200DE4001A3C00021A3C00041A3C00088F05D1B692C460098F007BDD761F1746A836A8386E
:200DF400A83AA83C761F174C183CFFFE183CFFFD183CFFFB183CFFF7761A9A01D400D50113
:200E04009B14FF6976480EDC76480E0B00067622761F174C1A2200011A2200041A220008E1
:200E14001A2200101A2200201A2300011A2300041A2400011A2400021A2600011A26000295
:200E24001A2600041A2600081A2600101A2600201A2600401A2600801A2601001A260200AF
:200E34001A2604001A2608001A2800011A2800021A2800041A2800081A2800101A28002047
:200E44001A2A00011A2A00021A2A00041A2E00011A2E00021A3000011A3000021A30000443
:200E54001A3000081A3200011A3200021A3200041A3400011A3400021A3600011A360002FF
:200E64001A3800011A3800021A3900011A3A00011A3C00011A3C00021A3C00041A3C0008B7
:200E74001A3E00011A3E00021A3E00041A3E00081A3E00101A3E00201A3E00401A3E00809F
:200E8400761F174D1A0300011A0300021A030004761AFF69000676220200761F174C1E2227
:200E94001E241E261E281E2A1E2E1E301E321E341E361E381E3A1E3C1E3E761F174D1E021D
:200EA400761AFF69000676226F059A0228A85A5A1E24761F140092249003520260F7761A95
:200EB400FF69000676229A0028A85A5A761F14001E24761AFF6900067622761F01C0CC2532
:200EC400FF0050559625CC25FF0050AA9625761AFF690006FE027622761F01C092299007CC
:200ED4009641924150689629761AFF69FE820006FE067D447C4397429641761F174888416E
:200EE400920890030EA90FA6601488429214907F0EA90FA6600E8843CC140300FFC70EA95D
:200EF4000FA6600788449222903F0EA90FA661678841920890030EA90FA661116F0A764834
:200F0400101D6F0D764810276F0A764810316F07924161F9520161FA520261F27622761F92
:200F1400174888429214907F0EA90FA660088843CC140300FFC70EA90FA66127180EFFFD81
:200F24001822FFC006141E468F00FC80A8AB93AB92AACF46CE4527A82FA956030843CA42DF
:200F340088A9A9A9AFA61E141A0E000192169001520160FD9242CD14FF80907FCAA8961422
:200F440092169001520160FD9244523F61089C01CD22FFC0903FCAA896226F06CD22FFC06D
:200F5400903FCAA896221A0E0002F66477009244CD22FFC0903FCAA89622761AFE86FF6990
:200F64000006FE087D447C4397429641761F17488841920A90030EA90FA6601E8842921EE1
:200F7400907F0EA90FA660188843CC1E0300FFC70EA90FA660118844922490030EA90FA68E
:200F840061756F0A7648103D6F0D764810476F0A764810536F07924161F6520161F7520427
:200F940061F80E42761F17481EA6921E907F80A906A60FA7600A0E431EA6CC1E0300FFC760
:200FA40080A906A60FA7612976221A240003061E1E488F00FC80A8AB93AB92AACF48CE47B1
:200FB40027A82FA956030843CA4288A9A9A9AFA61E1E1A180001761A92209001520160FDFC
:200FC40076229242CD1EFF80907FCAA8961E761A92209001520160FD56BF03456F19762202
:200FD4009245CD24FFFC9CFF9003CAA89624761A0B450E441EA69224900380A906A60FA716
:200FE40061078F000256FF69A8A9764090370E44761F17481EA69224900380A906A60FA78A
:200FF40060DF76221A180002761AFE88FF69000676220200761F17C019011E1002001901E4
:201004001E12020019011E14020019011E160200761F17C119011E10020019011E120200F9
:2010140019011E14020019011E16761A9A00FF6900067622761F1748CC08FFFC500296083D
:20102400761AFF6900067622761F17481808FFF71808FFFC761AFF6900067622761F174867
:201034001808FFEFCC08FFFC50019608761AFF6900067622761F17481808FFF7180AFFFC13
:20104400761AFF6900067622761F17481808FFEFCC0AFFFC5001960A761AFF69000676229C
:20105400761F1748CC0AFFFC5002960A761AFF6900067622761F174D1836FFFC761A7621C6
:20106400FF6900067622761F174DCC36FFFC50019636761A7621FF6900067622761F174D2D
:20107400CC36FFFC50029636761A761F174492259003520160FB7622761F1748180EFFFD1B
:20108400180EFFFE761A7621FF6900067622761F174D1A360003761A761F174492259003E6
:20109400600592249001520161F8FF6976480E8F7622761F1748180EFFFD180EFFFE761AC0
:2010A4007621FF690006FE0476220200761F01F01E3C761F01F11E3C761F01F21E3C761F53
:2010B40001F31E3C761F01F41E3C761F01F51E3C8F007C00A8422B43924352C0670F29011B
:2010C400BE00901F520661065603014307428AA9C2C40A43924352C068F58F007F00A842B8
:2010D4002B4392435218670C2901BE005603014307428AA9C2C40A439243521868F8761AD9
:2010E400FE84FF690006FE107C4397429641901F964D9241900F964E92419007964F29011E
:2010F4008F007C009241FFC4FF84560301A9560100A4A8469242520366709243520F69022C
:201104006F6C924DFFC3560301A9074609061E48924DFFC3560301A9074609201E4A924D29
:20111400FFC2560301A9074609281E4C7622FF6902038A48FF5A5603014E16A9563BFF5593
:20112400FF5A92ABC0C492AAC0CC0203FF5A8A4A5603014E16A9563BFF55FF5A92ABC0C431
:2011340092AAC0CC0203FF5A9243FFC188A98A4AA9A989A6FF5A5603014E16A9563BFF5AB0
:2011440092AB98C492AA98CC020389438A48FF5A5603014E16A9563BFF5A92AB98C492AA30
:2011540098CC0203FF5A8A4C5603024F16A9563BFF55FF5A92ABC0C492AAC0CC02038942E3
:201164008A4CFF5A5603024F16A9563BFF5A92AB98C492AA98CC761AFE90FF690006FE180E
:201174007C4397429641901F0EA91E529241900F0EA91E542D520201563B1E5629018F003B
:201184007C009241FFC4FF84560301A9560100A4A846020A07461E48020C07461E4A021036
:2011940007461E4C021207461E4E0652FF43FF30074609021E5076228A480656FF55C0C48A
:2011A400C1CC92425201601F8A48065698C499CC42436C068A4E065698C499CC6F068A4ED0
:2011B4000656FF55C0C4C1CC9243900561078A4A0656FF55C0C4C1CC6F238A4A065698C4D5
:2011C40099CC6F1E8A480656FF55C0C4C1CC40436C078A4A0656FF55C0C4C1CC6F058A4AB3
:2011D400065698C499CC41436C068A4C065698C499CC6F068A4C0656FF55C0C4C1CC924314
:2011E4009030FFC30EA91E58FF6902038A50FF5A5603015416A9563BFF55FF5A92ABC0C430
:2011F40092AAC0CC0658610CA358560301548A5016A9563BFF5A92AB98C492AA98CC761A53
:20120400FE98FF690006FE0A97429641901F0EA91E482D480201563B1E4A29018F007C009C
:201214009241FFC4FF84560301A9560100A4A844023C07441E467622924261068A46064AD7
:2012240098C499CC6F068A46064AFF55C0C4C1CC761AFE8AFF690006FE0296417622761F65
:2012340001E49603761AFF69FE820006FE0296417622761F01E49604761AFF69FE8200069D
:20124400FE0296417622761F01E49605761AFF69FE820006FE0296417622761F01E4960CFD
:20125400761AFF69FE820006FE0296417622761F01E4960D761AFF69FE820006762228A989
:20126400FFFF28A87FFF761F01F21E0C761F01F302081E0C761F01F402201E0C3B01761F08
:2012740001F5FF29FFFF1E0C761AFF69000676228F3FFC1C761F01F0A80C28A90E0028A8AF
:20128400FC00761F01F11E0C28A943E728A81EF0761F01F21E0C761F01F302081E0C761FC0
:2012940001F402001E0C3B01761F01F5FF29FFFF1E0C761AFF690006FE02761F174006080A
:2012A40029019B0018A90700FF479641520560047648127B6F0652066004764812626F01A7
:2012B400FE820006FE069641FFC429018F007F00FF81560301A9560100A4A8449241901FD2
:2012C4002DA906C456221EA692A690019645FE860006FE0697429641FFC429018F007F0051
:2012D400FF81560301A9560100A4A84402011EA69241901F2DA906A6563B1E469242600498
:2012E40006461EE46F0306461ED4FE8600069A007608293093BE40A86C029A0100069A000F
:2012F40076083B3093BE40A86C029A010006FE04A8441E4276220EA85DAD8F000D00FF69FF
:20130400FF30DD845DA5560100A4020276481C26761AFF69FE840006FE041E428F081C772C
:20131400A84476220EA85DAD8F000D00FF69FF30DD845DA5560100A4020276481C26761A50
:20132400FF69FE840006FE041E420EA81E427622761F00331A200001FF69764812F39643A2
:2013340002200F426636027F0F426833064229018F000CE21920FF42FF30560100A49242B6
:201344009B019CE090072DA9FF6799C4770077007700770077000642FF691920FF422DA9EE
:201354009A01FF667648143A29010642761F00331920FF422DA99A01FF66962106421920AB
:20136400FF422DA99A01FF6620A8CAA823A96F4602800F426635064229018F000CE21980A1
:20137400FF42FF30560100A492429B0108A9FF8090079C082DA9FF6799C477007700770015
:20138400770077000642FF691980FF422DA99A01FF667648143A29010642761F003319801C
:20139400FF422DA99A01FF66962106421980FF422DA99A01FF6620A8CAA823A96F0F020DE0
:2013A4000F42660C02100F42680992429CFF2DA99A01FF6620A8CAA823A9761A924360047E
:2013B400FF69764812EBFE84FF690006FE041E420EA81E427622FF69764812F396430220D0
:2013C4000F42662E027F0F42682B064229018F000CE21920FF42FF30560100A492429B01BC
:2013D4009CE090072DA9FF67FF5FC1C4770077007700770077000642FF691920FF422DA974
:2013E4009A01FF667648143A29010642761F00331920FF422DA99A01FF6696216F3F02806C
:2013F4000F42662D064229018F000CE21980FF42FF30560100A492429B0108A9FF809007CB
:201404009C082DA9FF67FF5FC1C4770077007700770077000642FF691980FF422DA99A01B7
:20141400FF667648143A29010642761F00331980FF422DA99A01FF6696216F10020D0F42C7
:20142400660D02100F42680A92429CFF2DA99A01FF66FF5E20A8CEA823A9761A92436004EB
:20143400FF69764812EBFE84FF690006FE0296416F31762FFFFE6F78762FFFFD6F75762F5B
:20144400FFFB6F72762FFFF76F6F762FFFEF6F6C762FFFDF6F69762FFFBF6F66762FFF7F10
:201454006F63762FFEFF6F60762FFDFF6F5D762FFBFF6F5A762FF7FF6F57762FEFFF6F54A9
:20146400762FDFFF6F51762FBFFF6F4E762F7FFF6F4B52808841621C528061E1520862112E
:20147400520861D180A68F008000A8A90FA761EF92A6520161BF520261C0520461C16F3405
:20148400521061C4522061C5524061C66F2D1BA6080062171BA6080061CE80A68F000100E4
:20149400A8A90FA761BF80A68F000200A8A90FA761BC88A68F000400A8A90FA661B96F14D2
:2014A40080A68F001000A8A90FA761B880A68F002000A8A90FA761B588A68F004000A8A903
:2014B4000FA661B26F01FE82000629102920FF6900063B10FF6900068F481C9C8F081CD798
:2014C400A0A9564100A4A8A98F00900076481C26764090000006FE0402001E4476228F0833
:2014D400179A761F0038A808761A8F03FFF4A84283428F081523A8C583428F00803AA8D53F
:2014E40083428F008038A8E583428F081542A8F5020807428AA98F4815ACA0C4761F0033B5
:2014F4001A2210007623000129102920BE028F0002BC6F04020107441E44761F1400062071
:201504009B00900F0FA66104A8A90F4466F4020B1E2202131E109A0128A880001E040200D6
:201514001E448F0001F4A8A90F446907020107441E44A8A90F4466FBFE84FF690006FE0218
:201524001E428F00FF00CC4200FF290188A9A8A9CE42CF41FF475CA99B0292A6764810E70B
:201534009BFFCC4200FF88A9CF41D4000EA893A992A6764811730201FE820006FE041E4284
:20154400924290FF964376226F479243761F01E496006F5A9243761F01E496016F559243D0
:20155400761F01E496026F509243761F01E496036F4B9243761F01E496046F469243761FFC
:2015640001E496056F419243761F01E496066F3C9243761F01E496076F379243761F01E4C0
:2015740096086F329243761F01E496096F2D9243761F01E4960A6F289243761F01E4960B18
:201584006F239243761F01E4960C6F1E9243761F01E4960D6F198F00FF002901A8A9BE0DE9
:20159400CE42CF41FF471EA719010FA6660D06A776C81EC81901FF30560100A724A9DF0105
:2015A40024A81EA77620761A0201FE84FF690006FE0A1E429BFFCF4197478F00FF002901D5
:2015B400A8A9CE42CF41FF479648924290FF96499248900F964A560301498F007A809CFE21
:2015C400560301A9560100A49248FFC3560301A907A41E4692499CFF8F007AA0560301A939
:2015D40007A41E4476225603014A2DA98A4692479003FF660EA998C499CC9A012D488A44E1
:2015E4003B01FF6685A998C499CC761A0201FF69FE8A0006FE067C439742964176481691F6
:2015F4008F0703AC0EC48F00FFFF0FA4610E5603024188A95603014294A69443964476C780
:2016040003AC3E6796456F7F2B456F7D761F01D09242CD01FFBF9001FF85CAA89601924394
:201614009001CD01FF7FFF86CAA896019245963B92426072761F01D1183000001832000004
:2016240018360000183800006F67761F01D29242CD01FFBF9001FF85CAA8960192439001E6
:20163400CD01FF7FFF86CAA896019245963B92426053761F01D31830000018320000183644
:201644000000183800006F48761F01D49242CD01FFBF9001FF85CAA8960192439001CD0163
:20165400FF7FFF86CAA896019245963B92426034761F01D51830000018320000183600000F
:20166400183800006F29761F01D69242CD01FFBF9001FF85CAA8960192439001CD01FF7FE2
:20167400FF86CAA896019245963B92426015761F01D718300000183200001836000018383A
:2016840000006F0A92416183520161A0520261BD520361DA6F01FE860006FE0296416F2D53
:201694008F0703B40EC48F00FFFF0FA4612F76C703B43E676F2B8F0703B20EC48F00FFFF6A
:2016A4000FA4612476C703B23E676F208F0703B00EC48F00FFFF0FA4611976C703B03E675E
:2016B4006F158F0703AE0EC48F00FFFF0FA4610E76C703AE3E676F0A520061D3520161DCA8
:2016C400520261E5520361EE6F01FE820006FE10761F002C9200761F0200962C9B00761FE8
:2016D40002009230761F0200542C68029B01972D9B00922D520061029B01761F01FCCC0741
:2016E4007FFF88A956030FA8CAA69607761F02009B009231761F0200542C67029B01972E44
:2016F4009A00530061029A01761F01FC9001CD0EFFFBFF81CAA8960E761F02000E2D761FF6
:2017040002001EAC56650032761F0200A92A28A924299BB71E4C02001E4AC62A965029015E
:20171400062AFF4790FF964F062A91FF974E28AC0018062A562290FF964D02041E465CADAD
:20172400DC900EA41E4402011E481A4800048F04A08840C46DFF8F04A000BE01A8A95CADDF
:20173400D500C242DC8C5CA4764808AF761F02000E2E761F02001EAC56650034761F020025
:20174400A92A28A924299BB71E4C02001E4AC62A96502901062AFF4790FF964F062A91FFC4
:20175400974E28AC0018062A562290FF964D02041E465CADDC900EA41E4402011E481A48CC
:2017640000048F04A08841C46DFF8F04A000BE02A8A95CADD500C242DC8C5CA4764808AF32
:20177400FE900006761F207A8A2202001EC48F00802AF6052B8476481B9476481B77761FCD
:2017840001D01A0D00017622761F01F018093FFF1A0B8000761A7622761F01F11806FFCF8F
:201794001A0A0004761AFF6900060006761BFFF00005ABBDA8BDA0BDC2BDC3BDE20000BDBC
:2017A400E20300BDE20301BDE20302BDE20303BDE6300600FE04FF6929425616761F140091
:2017B40006181E446F7F9A0028A880001E42020176480C76FFEF00889A0028A880001E425A
:2017C400020176480C766F7F9A0028A880001E42020176480CDF6F779A0028A880001E42AE
:2017D400020176480CDF6F6F9A0028A880001E42020176480D4C6F679A0028A880001E42E7
:2017E400020176480D4C6F5F9A0028A880001E42020176480CA96F579A0028A880001E422D
:2017F400020176480CA96F4F9A0028A880001E42020176480D146F479A0028A880001E4275
:20180400020176480D146F3F9A0028A880001E42020176480D7E6F379A0028A880001E42AE
:20181400020176480D7E6F2F9A0028A880001E42020176480C4A6F279A0028A880001E4289
:20182400020176480C4A6F1F9A0028A880001E42020176480DB36F17761F020056BF0136CB
:201834006F12BE111901C5440FA666F706A776C81EA41901FF30560100A724A9DF0124A8A2
:201844001EA77620761F003356BF0121FE84E2AF03BEE2AF02BEE2AF01BEE2AF00BEE28004
:2018540000BEC5BEC4BE83BE8ABE87BE00033B30FFF176177602FE0276480ECE7622FF69E6
:20186400764812A0761F174C1A3C00011A3C00021A3C00041A3C00088F05D1B692C46009BB
:201874008F007BDD761F1746A836A838A83AA83C761F174C183CFFFE183CFFFD183CFFFB10
:20188400183CFFF7761A9A01D400D5019B14FF6976480EDC7622761F174C1A2200011A225D
:2018940000041A2200081A2200101A2200201A2300011A2300041A240002020F761F174385
:2018A4001E2C8F000FFFA816023F1E1802071E1A020F1E2002031E268F070000A832182C7B
:2018B400FFFE1826FFFD761A7622761F1748182CFFF8761A3B1076260000762F0000FF6902
:2018C40076481BD876481C00764814CF56BF02419A14D404D5019B0556BF0142764818F363
:2018D400764819737622761F01F002001E021E04761F01F11E021E04761F01F21E021E04B5
:2018E400761F01F31E021E04761F01F41E021E04761F01F51E02761AFF69FE820006FE0A1C
:2018F4007D467C45974496437622761F174C1A360002761F01F0180CEFFF1821FCFFCC071B
:20190400FCFF1AA9020096071A04000C180DFFFD1822FFF3CC08FFF350089608761A290179
:2019140092435D459CFF5C4418A903C0DD8156030AA91EA756030CA588A9DC8106A7AFA6B4
:201924001EA7560308A488A95C4D06A7AFA61EA7DC81560306A488A906A7AFA61EA792430B
:201934009CFF903F88A906A7AFA61E488F04A000FF69A8A9764805FA8F44A000D400A0A957
:20194400764806B88F04A00092C49649504196C492488F04A00C96C48F04A00E064897C457
:201954008F04A000924996C48F04A0D82BC48F04A0DA2BC402028F04A0001E42A8A976486F
:2019640007F002018F04A0001E42A8A976480A988F04A000A8A9764806A7FE8A00068F0019
:201974000C00761F0200A8100200761F003019011E022B062B071A0400101A040020020026
:20198400761F02001E128F000C08A8008F000C10A808761F003019011E0A761F0030020008
:2019940019011E12761F00302B0E2B0F761F00302B162B17761F00301A0C0010761F0030A9
:2019A4001A140010761F00301A0C0020761F00301A140020761F020002001E021E0A0006E0
:2019B400FE08E2030146E2030044A84206441EE48A4206461EF4E2AF0044E2AF0146E700C4
:2019C40000087700E68800007700E20300488A428AC4064819011ED48A428AC42BF48A42F9
:2019D4008AC42BFC8A428AC41AE400108A428AC41AE400208A428AC418E4FBFF8A428AC4F4
:2019E40018E4F7FF8A428AC41AE440008A4202001ED4FE880006FE08E2030144E2030042F6
:2019F40029108F03FFF4A84602001E48761F02008F000425A8A90F3A600E8F00036E761FD3
:201A04000200A8A90F386107020107481E48A8A90F3860FB3B10FF6976481973E8024BA043
:201A1400E2AF01428F008010E8092000E3020844764819B4761F00301804FFEF7622761FF6
:201A240000358F081B33A80C761A761F00331A22004076230001FF69FE8800063B10761F92
:201A340000331A2200402910FF6900063B10761F00331822FFBFF6057700762FFFFE56BF08
:201A440001212910FF69000628AD0400FF69561F5616561AE61002002940761F0000290206
:201A5400761B76481C9752006142762228A91EE428A800080901611B76C81EE429046F0FC7
:201A64009B0024A9DF016C04290424A8DF011EA6F7A1248606A781A109011EA724A96303FA
:201A7400FF5C3B0459A9DF010009FFEC28A9FFFF28A8FFFF090161058F3FFFFF76481AED44
:201A8400761A76481C9928A9FFFF28A8FFFF0901610E76FFFFFF6F06DF01C3BD1EA73E6777
:201A9400C5BE24A9DF0124A8FF5860F776481C5E76481BB1761F020192070A0752006105CC
:201AA40056BF01060B076F0A76481A32764816CB76481A3A761F02010B070006FE0656BFF7
:201AB4000141E801F800E2030044E8021A40E2030046764814C07648185F761F207A8A22B5
:201AC40002001EC476481776E2AF0044E2AF0146764819EF761F207A8A22BE0006C460029B
:201AD400BE017E4176481A32764814B99241610B761F207A8A22BE0006C46002BE017E415D
:201AE400924160F776481799764814BD9A00FE860006B2BDAABDFE0486A4D10088CA6F39CA
:201AF4002901560303A107A209028AA992C460039A006F029A0293CCB60056B001A794A766
:201B0400611F520161155202610B5203602106E41E4206F41E4406D476481C446F1806E4D3
:201B14001E4206F41E4406D476481C446F1006E41E4206F41E4406D476481C446F0806E47F
:201B24001E4206F41E4406D476481C4488CAD90192A654A166C6FE8486BE8BBE0006761BC2
:201B3400FFF00005ABBDA8BDA0BDC2BDC3BDE20000BDE20300BDE20301BDE20302BDE20307
:201B440003BDE6300600FE02FF6929425616761F0033922296411822FFBFF6057700762F04
:201B5400FFFE56BF0121762300012910FF6976481A9E3B109241761F00339622FE82E2AFDD
:201B640003BEE2AF02BEE2AF01BEE2AF00BEE28000BEC5BEC4BE83BE8ABE87BE00033B304F
:201B7400FFF1761776027622761F01D018107FFF1811FFF8CC11FE0F50109611CC10FE00CD
:201B840050069610180AFFFCCC3B00FF933B3CA8973B1A0000041809FFE0761AFF69000682
:201B94007622761F174C1A3C0001761F01D01801FFF09A00D4009B00FF69764815EE761F15
:201BA40001D01A0000808F009C3EA8A976409037761AFF69000677006F00B2BD761F020194
:201BB40059A99200610D28ABFFFF28AAFFFF28A9FFFF28A8FFFF0FAB6103767FFFFF761F2B
:201BC4000200C53C3E67761F0201060461041EA792A13E67761F0201060261031EA73E6747
:201BD40076481BAF8BBE00063B10761F00331820FFFE2B222B242B262B282B2A2B2C2B2E8D
:201BE4002B302B322B342B362B382B232B252B272B292B2B2B2D2B2F2B312B332B352B373E
:201BF4002B39FF690006761F00331A2000012821FFFF2910FF690006FE068F081CD8A84493
:201C04008F000D00A846020607441E44020607461E4676222B41924152DD670D83468A44B7
:201C1400A0A9C4840902A8441E46C2C50A41924152DD68F5761A761F00331A200001FF6998
:201C2400FE8600065200A8AB8EA4610880A9DF8188A780857F80000EFFFE88A90FA6610FB9
:201C34005300610D9DFF5CA876BFFFFE92859680000EFFFE92859680000CFFF8A9A4000642
:201C44001EA78A440646520061049CFFF7A924845300611027462BAA565700A7A9A72484B5
:201C5400DF0128A9FFFEF7A9248408AA0001FFD0EDF6000628ABFFFF28AAFFFF28A9FFFF9F
:201C640028A8FFFF0FAB6004BE00D4006F0928ABFFFF28AAFFFFA9A488C409028AA992A6BA
:201C740076481AB20006761BFFF0E20000BDE6300600294256167625E28000BE3B30FFF198
:201C840076177602761F0200A83E0006761F0200A83C00060006561F7622B9C028290068F2
:0C1C9400761A00481A489A010006000663
:201C9C007622761F17E0CC1EFF005014961E1A2400011A200003761F17E61800FFFD1800C9
:201CAC00FFFE761F17E0CC00F0FF1AA903009600761F17E61A0000021A000001761F17EC17
:201CBC00CC00FFF0500A9600761AF6077700FF6900067622761F17E0CC1EFF005014961EC6
:161CCC001820FFFC1824FFFE761AFF690006190156C3FFFF000661
:201CD800056800080568000805680008056800080568000805680008056800080568000844
:201CE800056800080568000805680008056800080568000800040008000E00080018000851
:201CF80000220008002C00080036000800400008004A000800540008005E00080068000864
:201D080000720008007C00080086000800900008009A000800A4000800AE000800B80008D3
:201D180000C2000800CC000800D6000800E0000800EA000800F4000800FE00080108000842
:201D280001120008011C00080126000801300008013A000801440008014E000801580008AB
:201D380001620008016C00080176000801800008018A000801940008019E000801A800081B
:201D480001B2000801BC000801C6000801D0000801DA000801E40008056800080568000899
:201D580001EE000801F800080202000805680008056800080568000805680008056800081E
:201D6800020C00080216000802200008022A000802340008023E0008024800080252000893
:201D7800025C00080266000802700008027A000802840008028E0008056800080568000867
:201D88000298000802A2000802AC000802B6000802C0000802CA000802D4000802DE000813
:201D980002E8000802F2000802FC00080306000803100008031A000803240008032E00087E
:201DA8000338000803420008034C00080356000803600008036A000803740008037E0008EB
:201DB8000388000803920008039C000803A6000803B0000803BA000803C4000803CE00085B
:201DC80003D8000803E2000803EC0008056800080568000803F6000804000008040A000827
:201DD8000568000805680008056800080568000804140008041E000804280008043200085B
:201DE800043C00080446000804500008045A000805680008056800080568000805680008AB
:201DF80004640008046E0008047800080482000805680008056800080568000805680008FB
:201E0800056800080568000805680008056800080568000805680008056800080568000812
:201E1800048C000804960008056800080568000805680008056800080568000805680008B2
:201E280004A0000804AA00080568000805680008056800080568000805680008056800087A
:201E38000568000805680008056800080568000805680008056800080568000805680008E2
:201E480005680008056800080568000805680008056800080568000804B400080568000887
:201E580005680008056800080568000805680008056800080568000804BE0008056800086D
:201E680004C8000804D2000804DC000804E6000804F0000804FA000805040008050E0008A0
:201E78000568000805680008056800080568000805680008056800080568000805680008A2
:201E88000518000805220008052C00080536000805400008054A000805540008055E0008FA
:181E980011001200224023403340344035403640374000008028000059
:201EA40017B7000817C0000817C8000817D0000817D8000817E00008181800081820000825
:201EB40017E8000817F0000817F800081800000818080008181000081830000818300008C9
:201EC400183000081828000815490008154E00081553000815580008155D000815620008B7
:201ED40015670008156C00081571000815760008157B00081580000815850008158A000842
:201EE400FFFF804000000001FFFE8042000000000000FFFE8044000000000000FFFE8038EA
:201EF400000000000000FFFE803A000000000000FFFA803000000800080000EA000001D49F
:201F04000000FFFF804600000000FFFF804700000000FFFE803C00001C8E0008FFFE803E0E
:0A1F140000001C8E00080000000011
:00000001FF
